:020000040800F2
:10000000A0060020ED010008911700086D110008FE
:100010008D17000865020008C537000800000000C1
:10002000000000000000000000000000A1370008F0
:10003000690200080000000095170008A5370008B5
:10004000070200080702000807020008070200086C
:10005000070200080702000807020008070200085C
:10006000070200080702000807020008070200084C
:10007000070200080702000807020008070200083C
:10008000070200080000000007020008070200083D
:10009000070200080702000807020008070200081C
:1000A000070200080702000807020008070200080C
:1000B00007020008070200080702000807020008FC
:1000C00007020008070200080702000807020008EC
:1000D00007020008070200080702000807020008DC
:1000E00007020008070200080702000807020008CC
:1000F00007020008070200080702000800000000CD
:1001000000000000070200080000000007020008CD
:1001100007020008000000000702000807020008AC
:10012000070200080702000807020008070200088B
:10013000070200080000000000000000070200089D
:10014000070200080702000800000000000000008D
:10015000000000000000000000000000000000009F
:10016000000000000000000000000000070200087E
:10017000070200080000000000000000000000006E
:10018000000000000702000800000000000000005E
:10019000000000000000000000000000000000005F
:1001A000000000000000000007020008070200082D
:1001B000070200080702000807020008000000000C
:1001C000000000000702000800000000000000001E
:1001D0000702000807020008DFF80CD000F02AF838
:1001E00000480047C9370008A0060020064880479D
:1001F00006480047FEE7FEE7FEE7FEE7FEE7FEE70C
:10020000FEE7FEE7FEE7FEE7A9370008D901000890
:10021000D2B201E000F8012B491EFBD27047002248
:10022000F6E710B513460A4604461946FFF7F0FFF5
:10023000204610BD1CB509480090094801900546AC
:10024000009C06E0E06840F0010394E8070098474E
:100250001034AC42F6D3FFF7C3FF00009CD5010871
:10026000BCD50108FEE70000704700002DE9F04F03
:100270008BB01B2888BF00204DF26C3100EB800052
:10028000C0F6010101EB8007B7F808804FF6C060A7
:10029000C0F20100C8F5A07208EB00015608002367
:1002A000B7F80AA0B8F5A07F88BF002688BF4B0822
:1002B00041460893B8F5A07F28BF4FF4A071029182
:1002C000CAF1F001002250444FEA5109BAF1F00F8F
:1002D00000F1500084BF4FF00009C0F34F02BAF1A3
:1002E000F00F0A92CDF824A028BF4FF0F00A5FEA81
:1002F000094018D0002400BFE0B240F23F1101F0E5
:1003000025F901F0BDF900254FF6FF7001F08EF9D7
:10031000B5F59F7F05F10105F6D90134A0B21FFAAA
:1003200089F18842E8D309EB0A0B1FFA8BF0F02819
:1003300001971AD0CBF1F000002785B207EB0B0034
:10034000C0B240F23F1101F001F901F099F9002427
:100350004FF6FF7001F06AF9B4F59F7F04F10104D4
:10036000F6D90137B8B2A842E8D30998002818BFD7
:100370005FEA06401AD0701E00271FFA80FBB5B254
:1003800007EB0900C0B2594601F0E0F801F078F936
:10039000002400BF4FF6FF7001F048F90134A0B20D
:1003A000A842F7D30137B8B25045E9D309980028DD
:1003B000029806441ED0B0B2B0F5A07F1AD0C6F5A0
:1003C000A070002587B200BF05EB0900C0B240F263
:1003D0003F1101F0BBF801F053F900244FF6FF7014
:1003E00001F024F90134A0B2B842F7D30135A8B224
:1003F0005045E9D3019BDDF824C0D968002908469F
:10040000009100F09880089F02990A9A11FA87F1EA
:1004100007911FFA89F1891A069140F21001BCB2C6
:10042000C2F20001701EA1EB440102EB0A0E089417
:1004300002394FF0000980B2002200240591049097
:1004400008E000BF1046039C00990134019B8C42D8
:10045000024670D01FFA89F060456CD21868039488
:1004600010F814B0BBF1000FECD000EB4400596859
:10047000407831F810700BE0DDF824C009F1010973
:100480000020B646ABEB0A0B5FEA0B610246DAD0FE
:100490001FFA89F16145D5D2A8EB020080B25FFA5C
:1004A0008BFA504538BF82460A98002388424FF0A5
:1004B000000098BF01208E4588BF01230340012B17
:1004C0000AEB020019D195B2089A954298BF1546D9
:1004D000079C82B29442024638BF224692B29542AD
:1004E0000BD2059E6C1C06EB450500BFA6B225F895
:1004F000027FB24204F10104F8D182B24245C1D375
:100500007646002BB8D0069808440499C0B201F092
:100510001DF801F0B5F8B8F1000FADD040F21000B1
:10052000C2F20000029D841E34F8020F01F07EF832
:10053000013DF9D1A0E70BB0BDE8F08F10B540F256
:100540009024C2F200042078FFF790FE2078411C2E
:10055000C8B21B2888BF002100202170BDE81040D0
:10056000AFF30080B0B5044600F0EAF8054640F26B
:100570000800C2F200000068611C18BF044400BFFC
:1005800000F0DEF8401BA042FAD3B0BD2DE9F04FD9
:1005900083B00F68002F00F0CA8000F1200241F202
:1005A000004540F2004A019200F13842C4F60005CD
:1005B0000623C4F2010A4FEAB226A84208BF052367
:1005C00000254FF0010E4FF0030B00244FF0000800
:1005D000052E38BF4FEAB22300930AE00F6808F1F6
:1005E000010837FA08F204F1020405F1040500F0ED
:1005F0009E800EFA08F217EA020CEFD04F68122F15
:1006000017D80EFA07F616F0061F12D0D0F8089089
:10061000CE680BFA04F329EA0303A6403343836050
:10062000436823EA0202C7F3001303FA08F31A43EC
:100630004260C2688B680BFA04F922EA0902A340FF
:100640001A4347F01003122BC26017D16FF0030258
:10065000DDF804B002EA58025BF8023005F01C062F
:100660000F27D1F810E0B740BB430EFA06F73B4323
:100670004FF0010E4BF802304FF0030B03684F6848
:100680006FEA09021A4007F00303A3401A43FB0074
:100690000260A3D541F26003C4F202031A684FF668
:1006A000084942F001021A601A68CFF6FF7902F099
:1006B00001020292029A28F00302524452F80930D1
:1006C00005F00C070F26BE40B343009E06FA07F75D
:1006D0003B4342F80930DAF800204B6842EA0C0745
:1006E000DE0358BF22EA0C07CAF80070DAF80420CB
:1006F0009E0342EA0C0758BF22EA0C07CAF80470AE
:10070000DAF80820DE0242EA0C0740F20C4658BF35
:1007100022EA0C07CAF80870C4F2010632689B028C
:1007200042EA0C0758BF22EA0C07376056E703B0CD
:10073000BDE8F08F1823002A08BF2823C150704756
:1007400040F29820C2F200000068704740F20800B2
:1007500040F29821C2F20000C2F2000100680A686B
:10076000104408607047000080B5032000F080F856
:10077000002000F009F800281CBF012080BD00F017
:1007800031F8002080BD000040F20801C2F20001F3
:100790000968002904BF0120704710B5044640F2E3
:1007A0000400C2F200004FF47A720068B2FBF1F16B
:1007B000B0FBF1F000F0C4FC01460F2C4FF001003B
:1007C0000ED8002918BF10BD4FF0FF30214600227F
:1007D00000F022F840F20C010020C2F200010C608F
:1007E00010BD000082B041F25800C4F202008168DE
:1007F00041F001018160816801F0010101910199DD
:10080000016841F080510160006800F08050009064
:10081000009802B000F0B6B810B54EF60C5CCEF2FF
:10082000000CDCF80030C3F3022E8EF00704042C19
:1008300028BF0424BEF103034FF0FF3E0EFA04F478
:1008400038BF0023A14399400EFA03F39A431143A2
:1008500000F1604200F00F03090102F56442043B1D
:100860006344002848BF03F10C02117010BD000062
:100870004EF60C51CEF200010A684FF6FF031A4003
:1008800060F30A2242F0806040F0FD70086070471B
:1008900047F2000CC4F2000CDCF80020B0F5007F39
:1008A00035D0002866D1DCF8800002F4C06220F464
:1008B0008070B2F5806FCCF8800026D1DCF80000A3
:1008C000012262F34A20CCF8000040F20400C2F298
:1008D00000000068322358434DF68363C4F21B3393
:1008E000A0FB030302EB9340002200BFDCF81410CE
:1008F000013842F10003490501D5002BF6D1DCF89F
:100900001400400544BF0320704700207047DCF806
:10091000800002F4C06140F48070B1F5806FCCF8C3
:100920008000F2D1DCF80000012161F34A20CCF80C
:10093000000040F20400C2F200000068322250437E
:100940004DF68362C4F21B32A0FB020201EB92401F
:10095000002200BFDCF81410013842F10003490501
:1009600001D5002BF6D1DCF81400400544BF03206C
:100970007047CAE7022060F34A22CCF8002000202A
:100980007047000047F20800C4F20000016841F41B
:1009900080410160704700002DE9F047002800F019
:1009A000FE8042F2000AC4F2020A0446DAF80000AD
:1009B0000D4600F00F0088420DD2DAF8000020F05A
:1009C0000F002843CAF80000DAF8000000F00F001A
:1009D000A84240F0E480216841F20808C807C4F248
:1009E00002080CD14FF00009206881074BD4B9F1FF
:1009F000000F61D0D8F8000020F0F0005AE06068E5
:100A000058F8082C022800F0C880032840F0CA805B
:100A1000920140F1C480D8F80420D8F8043042F2A2
:100A20000046C3F3031302F00302D8F80470013345
:100A3000C0F2F406032A04BF43F20066C0F26E1649
:100A4000B6FBF3F2D8F80430C7F306277A43C3F3B2
:100A50004163022707EB4303B2FBF3F24BF200437F
:100A6000C0F2C4439A4240F2E480D8F8002012F069
:100A7000F00F00F0D480890740F1DB80A1680029E5
:100A800040F0D780CBE0410705D5D8F8001041F4FD
:100A9000E061C8F80010000706D5D8F8000007216B
:100AA00061F30D20C8F80000D8F80000A16820F01C
:100AB000F0000843C8F80000DAF8000000F00F006A
:100AC000A84219D9DAF8000020F00F002843CAF82C
:100AD0000000FFF735FE064641F28837DAF80000DD
:100AE00000F00F00A84207D0FFF72AFE801BB84293
:100AF000F4D90320BDE8F0872068410707D5D8F86E
:100B00000010E26821F4E0611143C8F8001000070A
:100B100008D5D8F80000216920F4605040EAC100EF
:100B2000C8F80000D8F8000042F20041C0F2F40119
:100B300000F00C000428084600F09C80D8F8000063
:100B400000F00C00082843F20060C0F26E1000F0C4
:100B50009180D8F8002002F00C020C2A40F0898025
:100B6000D8F80420D8F8043002F00302C3F30313CA
:100B7000D8F804700133032A08BF0146B1FBF3F033
:100B8000D8F80410C7F30627C1F341610222784365
:100B900002EB4101B0FBF1F06CE0910304D40120C1
:100BA000BDE8F0875105FAD5D8F8001001F00C0126
:100BB00004293ED0D8F8001001F00C01082938D0E3
:100BC000D8F8001001F00C010C2932D1D8F804102B
:100BD000D8F8042042F20047C2F3031201F00301E7
:100BE000D8F804300132C0F2F407032904BF43F2FD
:100BF0000067C0F26E17B7FBF2F1D8F80420C3F318
:100C000006235943C2F34162022303EB4202B1FBC4
:100C1000F2F14BF20042C0F2C442914209D9D8F835
:100C20000010082262F307114FF00109C8F8001004
:100C300001E04FF00009D8F8001021F0030108434B
:100C4000C8F80000FFF77CFD064641F2883700BF78
:100C5000D8F80000616800F00C00B0EB810F3FF4A1
:100C6000C3AEFFF76DFD801BB842F1D90320BDE88C
:100C7000F0870020D8F8001043F68C02C1F303116E
:100C8000C0F60002515C40F2040201F01F0120FA9C
:100C900001F140F20C00C2F200000068C2F2000252
:100CA0001160BDE8F047FFF76FBD0000002804BFEA
:100CB000012070472DE9F04182B00446007841F2EE
:100CC0000006C007C4F202061DD12078800737D481
:100CD000207800075AD42078400778D420788006FE
:100CE00000F1BF80E069002800F0CD81B16801F01B
:100CF0000C010C2940F01E81012840F08C8101205C
:100D000002B0BDE8F081B06800F00C01F06808297D
:100D100054D0032281F00C0122EA00000844B0FA0A
:100D200080F040094AD165683068B5F5A02F00F021
:100D3000C680B5F5803F40F0C98040F48030CBE0FC
:100D4000B068F16800F00C00042864D001F00301E1
:100D500080F00C0081F002010844B0FA80F04009F4
:100D600059D1E1683068002900F0D18040F48070EA
:100D70003060FFF7E5FC05463068400500F1F08083
:100D8000FFF7DEFC401B0228F6D92AE16169D6F89C
:100D90009400002900F0818040F00100C6F8940022
:100DA000FFF7CEFC054600BFD6F89400800792D42A
:100DB000FFF7C6FC401B0228F6D912E13068800319
:100DC0007FF583AF606800287FF47FAF39E0B06DB6
:100DD0005FEAC00808D4B06D40F08050B065B06DD7
:100DE00000F080500190019847F20007C4F200071C
:100DF0003868C00529D4386840F480703860FFF73F
:100E00009FFC05463868C0051FD4FFF799FC401BBE
:100E10000228F7D9E5E03068400501D5E06880B1E7
:100E20007068216920F0FE4040EA0160706040F285
:100E30000C00C2F200000068FFF7A6FC00283FF497
:100E400047AF012002B0BDE8F081A568D6F8900058
:100E5000052D00F0A280012D40F0A88040F0010097
:100E6000ACE0A169D6F89800002900F0818040F03C
:100E70000100C6F89800FFF763FC0546D6F8980015
:100E800080073FF52FAFFFF75BFC401B02284FF0B8
:100E90000300F3D902B0BDE8F08120F00100C6F8EC
:100EA0009400FFF74DFC0546D6F8940080077FF5C7
:100EB00012AFFFF745FC401B0228F5D991E040F442
:100EC00080203060306840F4803005E020F48030CD
:100ED0003060306820F480203060FFF731FC002D56
:100EE000054610D0306880033FF5EFAEFFF728FCD1
:100EF000401B6428F6D974E0FFF722FC401B6428ED
:100F00004FF00300C6D830688003F5D4DDE620F446
:100F100080703060FFF714FC054600BF3068400564
:100F20007FF5D6AEFFF70CFC401B02284FF0030004
:100F3000F4D9AFE73168022821F08071316040F0C8
:100F4000A680FFF7FDFB05463068800140F1B980BF
:100F5000FFF7F6FB401B02284FF00300F4D999E796
:100F60007068216920F0FE4040EA01607060AFE6E1
:100F700020F00100C6F89800FFF7E2FB054600BF2D
:100F8000D6F8980080077FF5ADAEFFF7D9FB401B80
:100F900002284FF00300F3D97CE740F00400C6F8C4
:100FA0009000D6F8900040F0010007E020F001002A
:100FB000C6F89000D6F8900020F00400C6F8900023
:100FC000FFF7BEFB002D054641F2883716D000BF63
:100FD000D6F89000800715D4FFF7B2FB401BB8424B
:100FE000F6D9032002B0BDE8F08100BFFFF7A8FBEF
:100FF000401BB8424FF003003FF64CAFD6F89000CC
:101000008007F3D4B8F1000F3FF568AEB06D20F063
:101010008050B06562E6F068216A00F003028A42FF
:101020007FF40FAF626A6FF00F0300F0F00103EB83
:10103000021291427FF405AFA16A00F4FE42B2EBC6
:10104000012F7FF4FEAEE16A00F07842B2EBC16F8F
:101050007FF4F7AE226B0023CFF6E07303EA02526F
:1010600000F4C001A2F5001291427FF4EAAE616B78
:101070004FF07E4202EA016100F0C06001F17E4162
:1010800088427FF4DEAE002002B0BDE8F081F06857
:101090004FF6FF7120F00300F060F068CFF6EE61CC
:1010A0000840F060FFF74CFB044600BF3068800149
:1010B000E9D5FFF745FB001B02284FF00300F5D9E7
:1010C000E8E6F06848F20C01C0F29F1104F1200735
:1010D00000EA010C8ECF6FF00F00D4E90C5400EB46
:1010E00002100022CFF6E07241EA0C0102EA05523A
:1010F0000843A2F500124FF07E4540EA032005EABE
:101100000465104305F17E4540EAC7602843F0605E
:10111000306840F080703060F06840F08070F060BF
:10112000FFF70EFB044600BF30688001ABD4FFF729
:1011300007FB001B02284FF00300F5D9AAE60000C8
:10114000411E0020B0EB116F1CBF012070474EF212
:101150001002CEF2000251604EF62351CEF2000191
:10116000F0230B700721906011607047FEE70000CC
:1011700040F21841C4F60001D1F8FCC30B6943F4F6
:1011800000730B610B6943F480730B610B6843F0D0
:1011900020030B602023C1F8FC330B6943F02003CC
:1011A0000B6100BF00BF00BF0B6843F020030B6062
:1011B0000B6843F480730B600023C1F8FC330A69A9
:1011C00042F020020A6100BF00BF00BF0A6842F07F
:1011D00020020A600A6842F480720A600A6942F4D6
:1011E00000720A610A6942F480720A610A6842F078
:1011F00020020A602122C1F8FC230A6942F0200281
:101200000A6100BF00BF00BF0A6842F020020A6006
:101210000A6842F480720A60C1F8FC330A694FF42C
:10122000963342F020020A6100BF00BF00BF0A6887
:1012300042F020020A600A6842F480720A600A6979
:1012400042F400720A610A6942F480720A610A6813
:1012500042F020020A602222C1F8FC230A6942F00F
:1012600020020A6100BF00BF00BF0A6842F02002EE
:101270000A600A6842F480720A6000BF00BF00BFC3
:101280000A6842F400720A600A69013B42F4007283
:101290000A610A6842F480720A600A6842F0200219
:1012A0000A60C1F8FC030A6942F020020A6100BF2B
:1012B00000BF00BF0A6842F020020A600A6842F4D8
:1012C00080720A6000BF00BF00BF0A6842F400726B
:1012D0000A60D9D11FFA8CF0C1F8FC0370470000F6
:1012E0002DE9F04F8BB040F61408C4F60008D8F88A
:1012F00000000025009041F24C000595CDE9035512
:10130000CDE90155C4F20200016840F2184741F0EE
:10131000040101600168C4F6000701F004010691B0
:101320000699016801AC41F00101016001684FF0CC
:10133000030901F00101069106990168012641F0B7
:10134000020101600068214600F002000690069844
:101350004FF44870019001200290A7F11800CDE9E8
:101360000359FFF713F94FF48070CDE901064FF0F0
:1013700090402146CDE90359FFF708F94FF6FF7079
:1013800007F57A74069006A920460A9508954FF647
:10139000FF7A0796CDF82490FFF7F8F84FF6004B48
:1013A000CFF6FF7B57F80B0006A940F4807047F892
:1013B0000B0038684FF6FF7640F4087038603869E3
:1013C00040F400703861386940F4807038613868E2
:1013D00040F020003860C8F80050386940F0200024
:1013E000386100BF00BF00BF386840F0200038609F
:1013F000386840F48070386020460A950895CDE939
:1014000006A5CDF82490FFF7C1F84FF61048CFF6A7
:10141000FF7857F8080006A940F4807047F80800E4
:1014200000BF00BF00BFD7F8F8A357F80B0040F487
:10143000807047F80B0001200A9508950790204618
:101440000696CDF82490FFF7A1F8386848F23021CD
:1014500040F40070386040F29420C2F20000A0F81E
:1014600000A00088884202D100F096F901E000F067
:1014700007FF3869002640F40070386138694FF67C
:10148000FF7940F48070386138684FF0030A40F00B
:101490002000386040F61400C4F600000660386989
:1014A00006A940F02000386100BF00BF00BF3868C7
:1014B00040F020003860386840F480703860204682
:1014C0000A96CDE90766CDF81890CDF824A0FFF76D
:1014D0005DF857F8080006A940F4807047F8080046
:1014E00000BF00BF00BFD7F8F85357F80B0040F417
:1014F000807047F80B0001200A9608960790204656
:10150000CDF81890CDF824A0FFF740F8386840F6E1
:10151000140140F40070386040F29420C2F20000E0
:1015200005800098C4F6000180B208600BB0BDE8E9
:10153000F08F000081B0ADF80200BDF8020040F26B
:101540000001C2F20001088001B0704740F2184269
:10155000C4F60002136943F400731361136943F482
:1015600080731361136843F0200313602023C2F8D3
:10157000FC33136943F02003136100BF00BF00BFB9
:10158000136843F020031360136843F480731360FF
:10159000C2F8FC03106940F02000106100BF00BFDA
:1015A00000BF106840F020001060106840F48070A8
:1015B0001060106940F400701061106940F4807090
:1015C0001061106840F0200010602120C2F8FC0378
:1015D000106940F02000106100BF00BF00BF10681C
:1015E00040F020001060106840F480701060C2F875
:1015F000FC13106940F02000106100BF00BF00BF65
:10160000106840F020001060106840F48070106096
:101610007047000081B0ADF80200BDF8020040F252
:101620009221C2F20001088001B0704740F21841D7
:10163000C4F600010A6942F400720A610A6842F4C1
:1016400080720A600A6842F020020A60C1F8FC0356
:10165000086940F02000086100BF00BF00BF0868B3
:1016600040F020000860086840F48070086000BF07
:1016700000BF00BF086840F40070086070470000B9
:1016800040F21840C4F60000016941F400710161A4
:10169000016941F480710161016841F0200101603C
:1016A0002221C0F8FC13016941F02001016100BF53
:1016B00000BF00BF016841F020010160016841F4F2
:1016C0008071016000BF00BF00BF016841F400717C
:1016D000016070472DE9F04387B0002741F24C00CC
:1016E0000697CDE90477CDE90277C4F202000168DC
:1016F00040F6000441F0040101600168C4F60004F2
:1017000001F00401019101990168012241F02001D9
:10171000016001684FF47F4601F0200101910199B9
:1017200001684FF0010841F001010160016801F01A
:10173000010101910199016841F00801016000680F
:101740004FF47F4100F00800019001982046FEF719
:10175000F1FF04F580652846042101224FF00409B9
:10176000FEF7E8FFCDE9026802AE20463146CDE93A
:101770000477FEF70BFF28463146CDE90298CDE904
:101780000477FEF703FF07B0BDE8F083FEE7000033
:10179000FEE700007047000040F21840C4F6000069
:1017A0000169002241F40071016101694FF0030CED
:1017B00041F480710161016841F020010160C0F8CD
:1017C000FC23016941F02001016100BF00BF00BF9F
:1017D000016841F020010160016841F480710160FD
:1017E0000121C0F8FC13036943F02003036100BF2B
:1017F00000BF00BF036843F020030360036843F4A5
:1018000080730360036943F400730361036943F465
:1018100080730361036843F020030360C0F8FC1386
:10182000036943F02003036100BF00BF00BF0368EA
:1018300043F020030360036843F480730360C0F83F
:10184000FC23026942F02002026100BF00BF00BF1A
:10185000026842F020020260026842F48072026074
:10186000026942F400720261026942F4807202610C
:10187000026842F0200202601022C0F8FC230269D4
:1018800042F02002026100BF00BF00BF026842F0C8
:1018900020020260026842F48072026041F290729B
:1018A000C0F8FC23026942F02002026100BF00BFC1
:1018B00000BF026842F020020260026842F48072B7
:1018C0000260026942F400720261026942F48072AD
:1018D0000261026842F0200202606022C0F8FC232C
:1018E000026942F02002026100BF00BF00BF02682F
:1018F00042F020020260026842F4807202604FF4FB
:101900001C52C0F8FC23026942F02002026100BFB1
:1019100000BF00BF026842F020020260026842F489
:1019200080720260026942F400720261026942F44C
:1019300080720261026842F0200202606122C0F8F7
:10194000FC23026942F02002026100BF00BF00BF19
:10195000026842F020020260026842F48072026073
:10196000C0F8FC13016941F02001016100BF00BF14
:1019700000BF016841F020010160016841F48071FD
:101980000160016941F400710161016941F48071F4
:101990000161016841F0200101604621C0F8FC139B
:1019A000016941F02001016100BF00BF00BF016873
:1019B00041F020010160016841F480710160022161
:1019C000C0F8FC13026942F02002026100BF00BFB0
:1019D00000BF026842F020020260026842F4807296
:1019E0000260026942F400720261026942F480728C
:1019F0000261026842F0200202601322C0F8FC2358
:101A0000026942F02002026100BF00BF00BF02680D
:101A100042F020020260026842F48072026048F2E2
:101A20001002C0F8FC23026942F02002026100BFEC
:101A300000BF00BF026842F020020260026842F468
:101A400080720260026942F400720261026942F42B
:101A500080720261026842F0200202601222C0F825
:101A6000FC23026942F02002026100BF00BF00BFF8
:101A7000026842F020020260026842F48072026052
:101A800048F2FE02C0F8FC23026942F02002026123
:101A900000BF00BF00BF026842F02002026002687F
:101AA00042F480720260026942F4007202610269CB
:101AB00042F480720261026842F020020260C0F8C3
:101AC000FC13016941F02001016100BF00BF00BFAC
:101AD000016841F020010160016841F480710160FA
:101AE0004FF4A061C0F8FC13016941F020010161CD
:101AF00000BF00BF00BF016841F020010160016824
:101B000041F480710160016941F400710161016972
:101B100041F480710161016841F020010160C0F869
:101B2000FCC3026942F02002026100BF00BF00BF97
:101B3000026842F020020260026842F48072026091
:101B400041F23002C0F8FC23026942F02002026137
:101B500000BF00BF00BF026842F0200202600268BE
:101B600042F480720260026942F40072026102690A
:101B700042F480720261026842F020020260302268
:101B8000C0F8FC23026942F02002026100BF00BFDE
:101B900000BF026842F020020260026842F48072D4
:101BA000026040F20332C0F8FC23036943F02003D3
:101BB000036100BF00BF00BF036843F02003036060
:101BC000036843F480730360036943F400730361A3
:101BD000036943F480730361036843F020030360E7
:101BE0003123C0F8FC33036943F02003036100BFD5
:101BF00000BF00BF036843F020030360036843F4A1
:101C000080730360C0F8FC23036943F02003036181
:101C100000BF00BF00BF036843F0200303600368F8
:101C200043F480730360036943F400730361036941
:101C300043F480730361036843F02003036032239D
:101C4000C0F8FC33036943F02003036100BF00BF09
:101C500000BF036843F020030360036843F480730C
:101C60000360C0F8FC23036943F02003036100BF55
:101C700000BF00BF036843F020030360036843F420
:101C800080730360036943F400730361036943F4E1
:101C900080730361036843F0200303603323C0F8BB
:101CA000FC33036943F02003036100BF00BF00BFA2
:101CB000036843F020030360036843F48073036008
:101CC0004FF44073C0F8FC33016941F02001016119
:101CD00000BF00BF00BF016841F020010160016842
:101CE00041F480710160016941F400710161016991
:101CF00041F480710161016841F0200101603421EB
:101D0000C0F8FC13016941F02001016100BF00BF70
:101D100000BF016841F020010160016841F4807159
:101D20000160C0F8FCC3016941F02001016100BFFE
:101D300000BF00BF016841F020010160016841F46B
:101D400080710160016941F400710161016941F430
:101D500080710161016841F0200101603521C0F806
:101D6000FC13016941F02001016100BF00BF00BF09
:101D7000016841F020010160016841F48071016057
:101D8000C0F8FC23016941F02001016100BF00BFE0
:101D900000BF016841F020010160016841F48071D9
:101DA0000160016941F400710161016941F48071D0
:101DB0000161016841F0200101603621C0F8FC1387
:101DC000016941F02001016100BF00BF00BF01684F
:101DD00041F020010160016841F48071016014212B
:101DE000C0F8FC13016941F02001016100BF00BF90
:101DF00000BF016841F020010160016841F4807179
:101E00000160016941F400710161016941F480716F
:101E10000161016841F0200101603721C0F8FC1325
:101E2000016941F02001016100BF00BF00BF0168EE
:101E300041F020010160016841F480710160C0F847
:101E4000FC23016941F02001016100BF00BF00BF18
:101E5000016841F020010160016841F48071016076
:101E6000016941F400710161016941F4807101610E
:101E7000016841F0200101603821C0F8FC130169BC
:101E800041F02001016100BF00BF00BF016841F0C7
:101E900020010160016841F480710160C0F8FC23F9
:101EA000016941F02001016100BF00BF00BF01686E
:101EB00041F020010160016841F480710160016915
:101EC00041F400710161016941F4807101610168AF
:101ED00041F0200101603921C0F8FC13016941F093
:101EE0002001016100BF00BF00BF016841F0200177
:101EF0000160016841F480710160C0F8FC23016950
:101F000041F02001016100BF00BF00BF016841F046
:101F100020010160016841F480710160016941F4B0
:101F200000710161016941F480710161016841F052
:101F3000200101603A21C0F8FC13016941F0200141
:101F4000016100BF00BF00BF016841F020010160D6
:101F5000016841F480710160C0F8FC33016941F00F
:101F60002001016100BF00BF00BF016841F02001F6
:101F70000160016841F480710160016941F4007100
:101F80000161016941F480710161016841F0200142
:101F900001603B21C0F8FC13016941F0200101619F
:101FA00000BF00BF00BF016841F02001016001686F
:101FB00041F480710160C0F8FCC3016941F0200167
:101FC000016100BF00BF00BF016841F02001016056
:101FD000016841F480710160016941F4007101619F
:101FE000016941F480710161016841F020010160E3
:101FF0003C21C0F8FC13016941F02001016100BFE0
:1020000000BF00BF016841F020010160016841F498
:1020100080710160C0F8FC23016941F02001016179
:1020200000BF00BF00BF016841F0200101600168EE
:1020300041F480710160016941F40071016101693D
:1020400041F480710161016841F0200101603D218E
:10205000C0F8FC13016941F02001016100BF00BF1D
:1020600000BF016841F020010160016841F4807106
:1020700001604FF4A051C0F8FC13016941F0200148
:10208000016100BF00BF00BF016841F02001016095
:10209000016841F480710160016941F400710161DE
:1020A000016941F480710161016841F02001016022
:1020B0009221C0F8FC13016941F02001016100BFC9
:1020C00000BF00BF016841F020010160016841F4D8
:1020D000807101604FF40071C0F8FC13016941F098
:1020E0002001016100BF00BF00BF016841F0200175
:1020F0000160016841F480710160016941F400717F
:102100000161016941F480710161016841F02001C0
:1021100001609321C0F8FC13016941F020010161C5
:1021200000BF00BF00BF016841F0200101600168ED
:1021300041F480710160C0F8FC23016941F0200185
:10214000016100BF00BF00BF016841F020010160D4
:10215000016841F480710160016941F4007101611D
:10216000016941F480710161016841F02001016061
:102170009021C0F8FC13016941F02001016100BF0A
:1021800000BF00BF016841F020010160016841F417
:102190008071016040F60D01C0F8FC13016941F047
:1021A0002001016100BF00BF00BF016841F02001B4
:1021B0000160016841F480710160016941F40071BE
:1021C0000161016941F480710161016841F0200100
:1021D0000160C0F8FCC3016941F02001016100BF4A
:1021E00000BF00BF016841F020010160016841F4B7
:1021F0008071016041F21801C0F8FC13016941F0DF
:102200002001016100BF00BF00BF016841F0200153
:102210000160016841F480710160016941F400715D
:102220000161016941F480710161016841F020019F
:1022300001600721C0F8FC13016941F02001016130
:1022400000BF00BF00BF016841F0200101600168CC
:1022500041F48071016040F27311C0F8FC13016910
:1022600041F02001016100BF00BF00BF016841F0E3
:1022700020010160016841F4807101607047000035
:102280002DE9F04F81B040F21844C4F600042069F3
:102290004FF0120940F4007020612069002540F4DD
:1022A000807020612068112640F020002060E3202B
:1022B000C4F8FC0320694FF0130B40F020002061AC
:1022C00000BF00BF00BF2068102740F02000206042
:1022D00020684FF0070840F48070206043F2080047
:1022E000C4F8FC03206940F02000206100BF00BF5B
:1022F00000BF206840F020002060206840F480701B
:102300002060206940F400702061206940F48070F2
:102310002061206840F020002060E720C4F8FC0322
:10232000206940F02000206100BF00BF00BF20688E
:1023300040F020002060206840F480702060C4F8E5
:10234000FC93206940F02000206100BF00BF00BF67
:10235000206840F020002060206840F480702060F9
:10236000206940F400702061206940F48070206191
:10237000206840F020002060EF20C4F8FC032069B2
:1023800040F02000206100BF00BF00BF206840F087
:1023900020002060206840F48070206041F23120ED
:1023A000C4F8FC03206940F02000206100BF00BF9A
:1023B00000BF206840F020002060206840F480705A
:1023C0002060206940F400702061206940F4807032
:1023D0002061206840F0200020600120C4F8FC0348
:1023E000206940F02000206100BF00BF00BF2068CE
:1023F00040F020002060206840F480702060C4F825
:10240000FC53206940F02000206100BF00BF00BFE6
:10241000206840F020002060206840F48070206038
:10242000206940F400702061206940F480702061D0
:10243000206840F0200020600220C4F8FC032069DE
:1024400040F02000206100BF00BF00BF206840F0C6
:1024500020002060206840F4807020604FF4E0602D
:10246000C4F8FC03206940F02000206100BF00BFD9
:1024700000BF206840F020002060206840F4807099
:102480002060206940F400702061206940F4807071
:102490002061206840F0200020600320C4F8FC0385
:1024A000206940F02000206100BF00BF00BF20680D
:1024B00040F020002060206840F48070206041F2ED
:1024C0003000C4F8FC03206940F02000206100BF08
:1024D00000BF00BF206840F020002060206840F46A
:1024E00080702060206940F400702061206940F411
:1024F00080702061206840F0200020600420C4F833
:10250000FC03206940F02000206100BF00BF00BF35
:10251000206840F020002060206840F48070206037
:10252000C4F8FC53206940F02000206100BF00BFC8
:1025300000BF206840F020002060206840F48070D8
:102540002060206940F400702061206940F48070B0
:102550002061206840F0200020600820C4F8FC03BF
:10256000206940F02000206100BF00BF00BF20684C
:1025700040F020002060206840F48070206040F22D
:102580000720C4F8FC03206940F02000206100BF50
:1025900000BF00BF206840F020002060206840F4A9
:1025A00080702060206940F400702061206940F450
:1025B00080702061206840F0200020600920C4F86D
:1025C000FC03206940F02000206100BF00BF00BF75
:1025D000206840F020002060206840F48070206077
:1025E000C4F8FC53206940F02000206100BF00BF08
:1025F00000BF206840F020002060206840F4807018
:102600002060206940F400702061206940F48070EF
:102610002061206840F0200020600A20C4F8FC03FC
:10262000206940F02000206100BF00BF00BF20688B
:1026300040F020002060206840F480702060C4F8E2
:10264000FC53206940F02000206100BF00BF00BFA4
:10265000206840F020002060206840F480702060F6
:10266000206940F400702061206940F4807020618E
:10267000206840F0200020600C20C4F8FC03206992
:1026800040F02000206100BF00BF00BF206840F084
:1026900020002060206840F480702060C4F8FC5363
:1026A000206940F02000206100BF00BF00BF20680B
:1026B00040F020002060206840F480702060206995
:1026C00040F400702061206940F48070206120682F
:1026D00040F0200020600D20C4F8FC03206940F089
:1026E0002000206100BF00BF00BF206840F0200034
:1026F0002060206840F480702060C4F8FC5320699A
:1027000040F02000206100BF00BF00BF206840F003
:1027100020002060206840F480702060206940F430
:1027200000702061206940F480702061206840F0D2
:10273000200020600F20C4F8FC03206940F0200036
:10274000206100BF00BF00BF206840F02000206073
:10275000206840F480702060C4F8FC53206940F089
:102760002000206100BF00BF00BF206840F02000B3
:102770002060206840F480702060206940F4007080
:102780002061206940F480702061206840F02000C2
:1027900020601020C4F8FC03206940F02000206174
:1027A00000BF00BF00BF206840F02000206020680C
:1027B00040F480702060C4F8FC53206940F0200091
:1027C000206100BF00BF00BF206840F020002060F3
:1027D000206840F480702060206940F4007020611F
:1027E000206940F480702061206840F02000206063
:1027F000C4F8FC63206940F02000206100BF00BFE6
:1028000000BF206840F020002060206840F4807005
:1028100020600720C4F8FC03206940F020002061FC
:1028200000BF00BF00BF206840F02000206020688B
:1028300040F480702060206940F4007020612069BD
:1028400040F480702061206840F020002060C4F8CF
:10285000FC93206940F02000206100BF00BF00BF52
:10286000206840F020002060206840F480702060E4
:10287000C4F8FC53206940F02000206100BF00BF75
:1028800000BF206840F020002060206840F4807085
:102890002060206940F400702061206940F480705D
:1028A0002061206840F020002060C4F8FCB320695B
:1028B00040F02000206100BF00BF00BF206840F052
:1028C00020002060206840F480702060C4F8FC5331
:1028D000206940F02000206100BF00BF00BF2068D9
:1028E00040F020002060206840F480702060C82004
:1028F000FDF738FE20694FF0320A40F40070206185
:10290000206940F480702061206840F02000206041
:10291000C4F8FC732069102740F02000206100BF3C
:1029200000BF00BF206840F020002060206840F415
:102930008070206041F29060C4F8FC03206940F090
:102940002000206100BF00BF00BF206840F02000D1
:102950002060206840F480702060206940F400709E
:102960002061206940F480702061206840F02000E0
:102970002060C4F8FC63206940F02000206100BFA3
:1029800000BF00BF206840F020002060206840F4B5
:102990008070206040F22720C4F8FC03206940F0DA
:1029A0002000206100BF00BF00BF206840F0200071
:1029B0002060206840F4807020603220FDF7D2FD56
:1029C000206940F400702061206940F4807020612B
:1029D000206840F020002060C4F8FC93206940F09B
:1029E0002000206100BF00BF00BF206840F0200031
:1029F0002060206840F4807020601D20C4F8FC0333
:102A0000206940F02000206100BF00BF00BF2068A7
:102A100040F020002060206840F480702060322068
:102A2000FDF7A0FD206940F400702061206940F4AA
:102A300080702061206840F020002060C4F8FCB362
:102A4000206940F02000206100BF00BF00BF206867
:102A500040F020002060206840F4807020604FF437
:102A60000060C4F8FC03206940F02000206100BF32
:102A700000BF00BF206840F020002060206840F4C4
:102A800080702060206940F400702061206940F46B
:102A900080702061206840F0200020602920C4F868
:102AA000FC03206940F02000206100BF00BF00BF90
:102AB000206840F020002060206840F48070206092
:102AC0001420C4F8FC03206940F02000206100BFFE
:102AD00000BF00BF206840F020002060206840F464
:102AE00080702060206940F400702061206940F40B
:102AF00080702061206840F0200020602B20C4F806
:102B0000FC03206940F02000206100BF00BF00BF2F
:102B1000206840F020002060206840F48070206031
:102B20000B20C4F8FC03206940F02000206100BFA6
:102B300000BF00BF206840F020002060206840F403
:102B4000807020603220FDF70DFD2069032140F4E4
:102B5000007020612069072240F4807020612068A5
:102B600040F0200020602020C4F8FC03206940F0E1
:102B70002000206100BF00BF00BF206840F020009F
:102B80002060206840F480702060C4F8FC53206905
:102B900040F02000206100BF00BF00BF206840F06F
:102BA00020002060206840F480702060206940F49C
:102BB00000702061206940F480702061206840F03E
:102BC000200020602120C4F8FC03206940F0200090
:102BD000206100BF00BF00BF206840F020002060DF
:102BE000206840F480702060C4F8FC53206940F0F5
:102BF0002000206100BF00BF00BF206840F020001F
:102C00002060206840F480702060206940F40070EB
:102C10002061206940F480702061206840F020002D
:102C200020603020C4F8FC03206940F020002061BF
:102C300000BF00BF00BF206840F020002060206877
:102C400040F480702060C4F8FC83206940F02000CC
:102C5000206100BF00BF00BF206840F0200020605E
:102C6000206840F480702060206940F4007020618A
:102C7000206940F480702061206840F020002060CE
:102C80003120C4F8FC03206940F02000206100BF1F
:102C900000BF00BF206840F020002060206840F4A2
:102CA0008070206040F20770C4F8FC03206940F097
:102CB0002000206100BF00BF00BF206840F020005E
:102CC0002060206840F480702060206940F400702B
:102CD0002061206940F480702061206840F020006D
:102CE0002060C4F8FCA3206940F02000206100BFF0
:102CF00000BF00BF206840F020002060206840F442
:102D0000807020600620C4F8FC03206940F0200099
:102D1000206100BF00BF00BF206840F0200020609D
:102D2000206840F480702060206940F400702061C9
:102D3000206940F480702061206840F0200020600D
:102D40003520C4F8FC03206940F02000206100BF5A
:102D500000BF00BF206840F020002060206840F4E1
:102D60008070206040F20470C4F8FC03206940F0D9
:102D70002000206100BF00BF00BF206840F020009D
:102D80002060206840F480702060206940F400706A
:102D90002061206940F480702061206840F02000AC
:102DA00020603620C4F8FC03206940F02000206138
:102DB00000BF00BF00BF206840F0200020602068F6
:102DC00040F48070206041F60470C4F8FC03206970
:102DD00040F02000206100BF00BF00BF206840F02D
:102DE00020002060206840F480702060206940F45A
:102DF00000702061206940F480702061206840F0FC
:102E0000200020603720C4F8FC03206940F0200037
:102E1000206100BF00BF00BF206840F0200020609C
:102E2000206840F4807020600420C4F8FC0320690E
:102E300040F02000206100BF00BF00BF206840F0CC
:102E400020002060206840F480702060206940F4F9
:102E500000702061206940F480702061206840F09B
:102E6000200020603820C4F8FC03206940F02000D6
:102E7000206100BF00BF00BF206840F0200020603C
:102E8000206840F480702060C4F8FC53206940F052
:102E90002000206100BF00BF00BF206840F020007C
:102EA0002060206840F480702060206940F4007049
:102EB0002061206940F480702061206840F020008B
:102EC00020603920C4F8FC03206940F02000206114
:102ED00000BF00BF00BF206840F0200020602068D5
:102EE00040F48070206040F20670C4F8FC03206952
:102EF00040F02000206100BF00BF00BF206840F00C
:102F000020002060206840F480702060206940F438
:102F100000702061206940F480702061206840F0DA
:102F2000200020603C20C4F8FC03206940F0200011
:102F3000206100BF00BF00BF206840F0200020607B
:102F4000206840F48070206040F20170C4F8FC03F7
:102F5000206940F02000206100BF00BF00BF206852
:102F600040F020002060206840F4807020602069DC
:102F700040F400702061206940F480702061206876
:102F800040F0200020603D20C4F8FC03206940F0A0
:102F90002000206100BF00BF00BF206840F020007B
:102FA0002060206840F4807020600F20C4F8FC038B
:102FB000206940F02000206100BF00BF00BF2068F2
:102FC00040F020002060206840F48070206020697C
:102FD00040F400702061206940F480702061206816
:102FE00040F0200020605020C4F8FC03206940F02D
:102FF0002000206100BF00BF00BF206840F020001B
:103000002060206840F480702060C4F8FC53206980
:1030100040F02000206100BF00BF00BF206840F0EA
:1030200020002060206840F480702060206940F417
:1030300000702061206940F480702061206840F0B9
:10304000200020605120C4F8FC03206940F02000DB
:10305000206100BF00BF00BF206840F0200020605A
:10306000206840F480702060EF20C4F8FC032069E1
:1030700040F02000206100BF00BF00BF206840F08A
:1030800020002060206840F480702060206940F4B7
:1030900000702061206940F480702061206840F059
:1030A000200020605220C4F8FC03206940F020007A
:1030B000206100BF00BF00BF206840F020002060FA
:1030C000206840F480702060C4F8FC53206940F010
:1030D0002000206100BF00BF00BF206840F020003A
:1030E0002060206840F480702060206940F4007007
:1030F0002061206940F480702061206840F0200049
:1031000020605320C4F8FC03206940F020002061B7
:1031100000BF00BF00BF206840F020002060206892
:1031200040F48070206040F23F10C4F8FC03206936
:1031300040F02000206100BF00BF00BF206840F0C9
:1031400020002060206840F480702060206940F4F6
:1031500000702061206940F480702061206840F098
:10316000200020606020C4F8FC03206940F02000AB
:10317000206100BF00BF00BF206840F02000206039
:10318000206840F4807020604FF41C50C4F8FC03A9
:10319000206940F02000206100BF00BF00BF206810
:1031A00040F020002060206840F48070206020699A
:1031B00040F400702061206940F480702061206834
:1031C00040F0200020606120C4F8FC03206940F03A
:1031D0002000206100BF00BF00BF206840F0200039
:1031E0002060206840F4807020600120C4F8FC0357
:1031F000206940F02000206100BF00BF00BF2068B0
:1032000040F020002060206840F480702060206939
:1032100040F400702061206940F4807020612068D3
:1032200040F0200020606A20C4F8FC03206940F0D0
:103230002000206100BF00BF00BF206840F02000D8
:103240002060206840F480702060C4F8FC5320693E
:1032500040F02000206100BF00BF00BF206840F0A8
:1032600020002060206840F480702060206940F4D5
:1032700000702061206940F480702061206840F077
:10328000200020608020C4F8FC03206940F020006A
:10329000206100BF00BF00BF206840F02000206018
:1032A000206840F480702060C4F8FC53206940F02E
:1032B0002000206100BF00BF00BF206840F0200058
:1032C0002060206840F480702060206940F4007025
:1032D0002061206940F480702061206840F0200067
:1032E00020608120C4F8FC03206940F020002061A8
:1032F00000BF00BF00BF206840F0200020602068B1
:1033000040F480702060C4F8FC53206940F0200035
:10331000206100BF00BF00BF206840F02000206097
:10332000206840F480702060206940F400702061C3
:10333000206940F480702061206840F02000206007
:103340008220C4F8FC03206940F02000206100BF07
:1033500000BF00BF206840F020002060206840F4DB
:1033600080702060C4F8FC53206940F02000206188
:1033700000BF00BF00BF206840F020002060206830
:1033800040F480702060206940F400702061206962
:1033900040F480702061206840F02000206083208D
:1033A000C4F8FC03206940F02000206100BF00BF8A
:1033B00000BF206840F020002060206840F480704A
:1033C0002060C4F8FC53206940F02000206100BF59
:1033D00000BF00BF206840F020002060206840F45B
:1033E00080702060206940F400702061206940F402
:1033F00080702061206840F0200020608420C4F8A4
:10340000FC03206940F02000206100BF00BF00BF26
:10341000206840F020002060206840F48070206028
:10342000C4F8FC53206940F02000206100BF00BFB9
:1034300000BF206840F020002060206840F48070C9
:103440002060206940F400702061206940F48070A1
:103450002061206840F0200020608520C4F8FC0333
:10346000206940F02000206100BF00BF00BF20683D
:1034700040F020002060206840F480702060C4F894
:10348000FC53206940F02000206100BF00BF00BF56
:10349000206840F020002060206840F480702060A8
:1034A000206940F400702061206940F48070206140
:1034B000206840F0200020609020C4F8FC032069C0
:1034C00040F02000206100BF00BF00BF206840F036
:1034D00020002060206840F480702060C4F8FC73F5
:1034E000206940F02000206100BF00BF00BF2068BD
:1034F00040F020002060206840F480702060206947
:1035000040F400702061206940F4807020612068E0
:1035100040F0200020609220C4F8FC03206940F0B5
:103520002000206100BF00BF00BF206840F02000E5
:103530002060206840F480702060C4F8FC5320694B
:1035400040F02000206100BF00BF00BF206840F0B5
:1035500020002060206840F480702060206940F4E2
:1035600000702061206940F480702061206840F084
:10357000200020609320C4F8FC03206940F0200064
:10358000206100BF00BF00BF206840F02000206025
:10359000206840F480702060C4F8FC13206940F07B
:1035A0002000206100BF00BF00BF206840F0200065
:1035B0002060206840F480702060206940F4007032
:1035C0002061206940F480702061206840F0200074
:1035D00020609520C4F8FC03206940F020002061A1
:1035E00000BF00BF00BF206840F0200020602068BE
:1035F00040F4807020604FF48870C4F8FC032069A8
:1036000040F02000206100BF00BF00BF206840F0F4
:1036100020002060206840F480702060206940F421
:1036200000702061206940F480702061206840F0C3
:10363000200020609720C4F8FC03206940F020009F
:10364000206100BF00BF00BF206840F02000206064
:10365000206840F480702060C4F8FC53206940F07A
:103660002000206100BF00BF00BF206840F02000A4
:103670002060206840F480702060206940F4007071
:103680002061206940F480702061206840F02000B3
:1036900020609820C4F8FC03206940F020002061DD
:1036A00000BF00BF00BF206840F0200020602068FD
:1036B00040F480702060C4F8FC53206940F0200082
:1036C000206100BF00BF00BF206840F020002060E4
:1036D000206840F480702060206940F40070206110
:1036E000206940F480702061206840F02000206054
:1036F000C4F8FC13206940F02000206100BF00BF27
:1037000000BF206840F020002060206840F48070F6
:10371000206041F21800C4F8FC03206940F020004A
:10372000206100BF00BF00BF206840F02000206083
:10373000206840F480702060206940F400702061AF
:10374000206940F480702061206840F020002060F3
:10375000C4F8FC23206940F02000206100BF00BFB6
:1037600000BF206840F020002060206840F4807096
:10377000206040F27310C4F8FC03206940F0200080
:10378000206100BF00BF00BF206840F02000206023
:10379000206840F48070206001B0BDE8F08F000028
:1037A00070470000FCF7D2BF4EF68850CEF2000002
:1037B000016841F4700101604FF0006140F8801C25
:1037C00070470000FEE7000094B0FCF7CDFF06ACA8
:1037D00020463821FCF723FD00254FF400700595A5
:1037E000CDE90355CDE90155FDF752F801200690CA
:1037F0004FF480300790022014210D900326CDE96C
:103800001010CDE912002046CDE90E66FDF74EFA04
:1038100018B1EFF3108072B6FEE70F20CDE9010674
:1038200001A80221CDE903550595FDF7B5F820B1B2
:10383000EFF3108072B600BFFEE7FDF74BFF40F6D6
:103840000040C4F6000004210022FCF773FFFDF7DE
:1038500047FD4FF6FF70FDF76DFE0020FDF7DAFE25
:103860004FF6FF70FDF784FCFCF768FEFCE702E012
:1038700008C8121F08C1002AFAD1704770470020FB
:1038800001E001C1121F002AFBD1704700000000B7
:10389000000000000102030406070809FFFF435966
:1038A0008B93B2AC14DEBCCE787C732AFF00FF0091
:1038B000FF00FF00FF00FF00FF00FF00FF00FF0010
:1038C000FF00FF00FF00FF00FF00FF00FF00FF0000
:1038D000FF00FF00FF00FF00FF00FF00FF00FF00F0
:1038E000FF00FF00FF00FF00FF00FF00FF00FF00E0
:1038F000FF00FF00FF00FF00FF00FF00FF00FF00D0
:103900009E000501E9000901E5000D0140000201EA
:10391000A0000F013B0009019C00110137000E01BE
:1039200099001201350011019700080101020103FD
:10393000010401030102070132001301960008018E
:1039400001020504010207012F001601950007017D
:1039500001020704010206012D000D01010203030B
:103960000102060194000701010208040103070196
:103970002B000B0101020103060401020501930063
:10398000070101020A040102070128000B010102DC
:1039900001030804010206019200070101030B0460
:1039A0000102060127000A01010201030A040103C2
:1039B00006019100070101030C0401032A01010023
:1039C0000A01010201030C04010306019000070132
:1039D00001020D040103340101020E04010306017A
:1039E0009000060101020E040102320101020103EE
:1039F0000F04010306018F00070101030E043201C9
:103A000001031104010306018F00060101020F04E6
:103A100001022F01010201031204010306018E00BD
:103A2000070101030F04010301020801130212013F
:103A300001021404010306018E00060101021204B2
:103A40000703150405030A02020315040102060117
:103A50008D0007015504010206018D0006010102D7
:103A60005504010206018C000701560401020501FC
:103A70008D00060101025604010205018C000701B8
:103A800001035504010306018B00070101025604DE
:103A9000010306018A00080101035604010307011E
:103AA000880008010103570401030801860008018A
:103AB00001025904010207018500080101025B04AB
:103AC0000102070183000801010226040105070025
:103AD00001052E04010207018100080101022604EC
:103AE0000B0001052C0401030801800007010102FD
:103AF000250401050E002C04010307017F000701C6
:103B000001022504010510002C04010207017D00BB
:103B100007010102260412002C04010207017B00A8
:103B20000701010201032504130001052C04010211
:103B30000701790008010103250415002C04010385
:103B400008017700080101031A04010303060103B9
:103B500006040105160006040303230401030701FC
:103B60007600080101031A04010605070103040495
:103B700001051700010504040106040701032204DE
:103B8000010207017400080101031A040103070779
:103B900004041900030401060607010322040102BC
:103BA00007017200080101031B0401060707010356
:103BB00002041B000104010307070106220401039C
:103BC00008017000080101031C0408070103010437
:103BD00001051C00010308072304010307016F000E
:103BE000080101021D040807010301041D0001066C
:103BF000080701032304010207016D000801010207
:103C00001E04080701031E0001060807010324041F
:103C1000010207016B00080101021F0408070105EA
:103C20001E000106080701032504010207016A00BE
:103C3000070101021F040103080701051E00010618
:103C400008070103250401030801680007010102B8
:103C500020040103080701051E00010608070103EF
:103C60002604010307016800060101022104010383
:103C70000807010505000105010401030102030312
:103C800001041100010608070103270401020701CE
:103C90006700060101032104010308070105020072
:103CA0000105010301020801010201050F000106DF
:103CB000080701032804010207016700040101034A
:103CC0002204010308070100010501020D0101039F
:103CD0000E00010608070103290408016900010319
:103CE0002304010308070102100101020D0001066F
:103CF00008070103290401030701690024040103E3
:103D00000607140101020C000106080701032A043A
:103D100001020701680024040103040717010103DD
:103D20000B000106080701032B04010207016700CD
:103D30002404010303070C0102020203010208012B
:103D400001050A000106080701032C04010206010F
:103D5000670002040103010201031F0401030207BB
:103D60000B01010301050500010501020601010324
:103D70000A00010608072D0401030601660002037C
:103D80000102030101021E04010301070A010103EC
:103D9000010509000102050101020A0001060807E8
:103DA00001052D0401020501660001030102050160
:103DB00001031D0401020901010201050B000104B8
:103DC0000601010509000106080702002D04010093
:103DD000030167000102060101031C04010209013D
:103DE00001030E0006010104090001060807020094
:103DF00001052C046B00070101031B0401020801EB
:103E0000010201050E000105060101050900010678
:103E10000807010502002C046A00070101021B04C7
:103E20000102080101020F00010507010A00010556
:103E30000807040025040103010201010102010336
:103E400001046900070101021B04010208010103CA
:103E50000F000103070101020A000105070701061F
:103E600005002304010305010104680007010102A4
:103E70001B040102080101030D00010501030901F2
:103E800001050B00010606070105050001052204D6
:103E90000102050101026800070101031A04010281
:103EA000080101030C00010501030A0101030C00D4
:103EB00001050106040701050700220401020601AD
:103EC0006700070101031A040103080101030C0044
:103ED00001020B0101030F0003050A002104010385
:103EE00007016600060101021B04080101030C0022
:103EF00001020B0101040400020503040205120083
:103F00000105210401020701650006011B040102ED
:103F1000070101020C0001030A0101020105020070
:103F200001050103010207010202010301040F0060
:103F30002204010206016600040101001A040103C3
:103F4000070101020C0001040A0101030300010240
:103F50000F0101030E002104010306016B000103A0
:103F6000050401030102020101020E04010308011C
:103F700001050C0001020801010301050200010511
:103F800001021101010201050D00210401030501D7
:103F90006C0005040102040101020D040102070185
:103FA00001040C00010307010102010504000102E4
:103FB000140101040C0001052104010301020201A6
:103FC0006E0003040102050101020C040103070154
:103FD00001030C000105070101040500010316019E
:103FE00001040C001A040103070401037000020419
:103FF0000103060101020C04070101020D00010387
:10400000060101030600080105020B0101040C0072
:1040100017040202010101020103050472000104F8
:104020000102060101030B040102070101040C0057
:104030000105060101020600010406010102010555
:104040000600010501040102080101030C0015042A
:1040500001030501010304047300060101020B04BE
:104060000103070101020D0001030601010406001E
:104070000103050101020B000103080101040B000B
:104080000105140401020501010203047400060184
:1040900001030B040102070101050C0001050601E3
:1040A000010207000103050101030C0001040801DE
:1040B00001050B0014040102060101030204730050
:1040C000060101020B040102070101040D000103B6
:1040D0000601010407000103050101020D000103AF
:1040E000080101050B00130401030601010201048C
:1040F0007400060101030B04070101020E00060112
:10410000010208000104060101030D00010208017B
:1041100001050B00130401020501010274000701EF
:104120000202080301040102070101050D00010359
:104130000601010408000105070101040D00010248
:104140000701010201050A0001051204010306012D
:104150007400190101030E000102050101020A00A9
:104160000102070101040C0001050901020201031B
:1041700002040600020401030602010102020D010D
:10418000740019010E000104060101040B00010274
:104190000701010201050B0001040E0101040500E5
:1041A000010417017500170101030E00010205014A
:1041B00001020C000105080101020C0001040E01BE
:1041C0000105040001041701760016010E00010527
:1041D000060101030D000105080101030C000103A4
:1041E0000D0101030400010417017800130101030C
:1041F0000E00010206010F000104080101050C0078
:1042000001030C0101040400010516017F000101F6
:1042100001000B010E00010506010103100001055C
:10422000080101050C00010501030202070101025A
:104230000600060101020E018500070101030E00C0
:10424000010306010105110001050701010210002B
:104250000105010402030202010307000102050136
:104260009400070101050E0001020501010213007F
:104270000104070101021D0001020501940006016D
:1042800001020E00010406010104140001040701EB
:10429000010201051B000103050194000601010450
:1042A0000E000102050101021600010307010102CF
:1042B00001041A0001030601930006010E00010526
:1042C000060101031700010208010103190001039F
:1042D00006019300050101020E0001030601190009
:1042E0000102080101020104170001040601930004
:1042F000050101020E000102050101031A0001027D
:1043000009010102010515000104060192000601E0
:1043100001030D000105060101051B0001020A0150
:1043200001031400010406019200060101030D00BF
:104330000103050101021D0001030B01010312002D
:10434000010406019200060101040D0001020501AD
:1043500001031E0001040B0101020104100001030E
:1043600006019200060101040D000102050101058C
:104370001F00010401020B01020201040D000103F0
:1043800006019200060101050D000103040101026E
:10439000220001020D0101030C000103060192003D
:1043A00006010F00010202010102010523000104C0
:1043B0000D0101050B000102060192000501010239
:1043C000100002052600010501030B0101040B008A
:1043D000010206019200050101023A0001050102F5
:1043E000090101050B00010206019200050101020D
:1043F0003C00010501030102050101040C0001025A
:1044000006019200050101033F00010503040E00AF
:104410000701910006010103500001050601920009
:104420000601010350000105060192000601010486
:10443000500001040601920006010105500001032D
:1044400006019200060101055000010306019200D9
:10445000060101055000010206019200060151000B
:1044600001020501930006015100010205019300BC
:1044700006015000010506019300050101025000EC
:10448000010306019300050101025000010206012B
:10449000930005010102500006019400050101028C
:1044A0004F00010406019400050101024F000102C2
:1044B00006019400050101024F0006019500050167
:1044C00001024E0001040601950006014E000102A2
:1044D00006019500060101054C0001050601960044
:1044E000060101054C0001030601960006010105C5
:1044F0004B00010506019700060101044B00010372
:1045000006019800050101034B0007019800050111
:1045100001034A00010306019900050101024A0056
:1045200007019900050101024900010306019A00F3
:1045300006014800010507019A0006010105470030
:10454000010206019B000601010446000104070167
:104550009B00060101034500010507019D000501BF
:1045600001024500010206019E000501010244000E
:10457000010307019E000601010542000105090132
:104580009D0006010104410001050A019D0006018C
:104590000103410001020A019E00050101024000E1
:1045A00001020B019E0006013F0001030B019F0069
:1045B000060101043D000103070101020104A200FC
:1045C00006010103140002050204010304020101B3
:1045D00006020203010401051400010207010102A1
:1045E0000104A400050101020E00010501040103FC
:1045F00003021501010201040F0001050102080177
:104600000103A500060101050A00010401030102DE
:104610001D0101020D00010501020A01A5000601AC
:104620000103080001050102210101030B0001053E
:1046300001020B01A500060101020700010423018C
:1046400001020A00010501020C01A5000701010495
:104650000500010325010105080001040D01A70063
:104660000601010201050200010501020F0110000F
:1046700007010105070001030801AD00080102025E
:104680000B01170006010102050001030901AE003C
:1046900013011A0006010102020301020A01B0001F
:1046A00010011C001301B2000E011D001101B50024
:1046B0000B0120000E01B800090121000C01BB0014
:1046C000050126000701FF00FF00FF00FF00FF00BB
:1046D000FF00FF00FF00FF00FF00FF00FF00FF00E2
:1046E000FF00FF00FF00FF00FF00FF00FF00FF00D2
:1046F000FF00FF00FF00FF00FF00FF00FF00FF00C2
:10470000FF00FF00FF00FF00FF00FF00FF00FF00B1
:10471000FF00FF00FF00FF00FF00DC00FFFF435928
:104720000A83D0BC55DEB432137C1BB6FF00FF00F9
:10473000FF00FF00FF00FF00FF00FF00FF00FF0081
:10474000FF00FF00FF00FF00FF00FF00FF00FF0071
:10475000FF00FF00FF00FF00FF00FF00FF00FF0061
:10476000FF00FF00FF00FF00FF00FF00FF00FF0051
:10477000FF00FF00FF00FF00FF00FF00BD0005017C
:10478000E8000A01E4000D013B000A019D000F0151
:1047900038000D019B001101340011019900130133
:1047A000310014019800080101020203010208010E
:1047B0002F00160196000701010201030404010302
:1047C00007012D000D0104020701950007010102F8
:1047D0000704010207012B000B010202010304047C
:1047E0000103060194000801010308040102060107
:1047F00029000B01010201030804010206019300D4
:104800000701010309040103070127000A0101024E
:1048100001030A04010306019200070101030B04CE
:104820000102060114001B01010201030C04010333
:1048300006019100070101020C0401033401010289
:1048400001030D04010306019100070101030C049B
:104850000103330101030F04010306019000070166
:1048600001030D04010331010102010310040103DE
:1048700006019000060101020E040103300101024D
:1048800012040103010205018F00070101030F0457
:1048900001022C01020201031404010205018F0030
:1048A000060101021004010321020B031604010397
:1048B00006018E00070101035304010306018E0067
:1048C000060101005404010306018D0007010103E4
:1048D0005404010306018D00060101025504010381
:1048E00006018D00060101035504010206018C003A
:1048F000060101025604010205018D0006010103B3
:104900005604010205018C0007010103560401034E
:1049100006018A0007010102260405032C04010395
:1049200007018800080101032D0401032A04010284
:1049300007018600080101032304010302040800A3
:104940002B040103080184000801010325040D0064
:1049500029040103080183000701010225040F0057
:10496000010401032704010207018200070101027B
:10497000230401030104110029040102070180003E
:1049800007010102230401030104130029040102A9
:1049900007017E0007010102010324041400010441
:1049A000010327040103010207017C000801010340
:1049B00024041600010401032704010308017A00FE
:1049C000080101031B040203070418002904010362
:1049D00008017800080101031A0401030305010618
:1049E000010303040103010418000104010303048B
:1049F00001030206010321040103070177000801F6
:104A000001031A0401060605010303041A00020447
:104A100001030106050501032004010207017500D9
:104A2000080101021A0401030705010602041C0023
:104A300001040106060501062104010207017400B4
:104A4000070101021B0401030805010301041C0006
:104A5000010408050103200401030102070172009B
:104A6000070101021C040106080501031D000107DE
:104A70000805010621040103080170000701010275
:104A80001D040106080501071D00010708050106B0
:104A90002204010308016E000701010201031D0445
:104AA000010608051E00010708050106230401038D
:104AB00007016D00080101031E04010608051E0020
:104AC0000107080501062404010207016B00080123
:104AD00001031F04010608051E0001070805010661
:104AE00025040102070169000801010320040106F1
:104AF00008051E000107080501062604010207013A
:104B00006800070101032104010608051E000107D2
:104B100008050106260401030801660007010102D9
:104B20002204010608050600020404030104110022
:104B300001070805010627040103080165000601B5
:104B40000102230401060805030001040103010218
:104B50000701010201040F000107080501062804EE
:104B60000103080164000501010224040905010094
:104B7000010401030C0101030E00010708050103F4
:104B8000290401020701650003010102250409054A
:104B900001030F0101020D000107080501032A04AA
:104BA0000102070167000103250408051201010243
:104BB0000C000107080501062B040102060167002D
:104BC00026040605150101040B000107080501066E
:104BD0002B040103060167000103250405050B01F1
:104BE00001020103010401030102060101020B009D
:104BF0000107080501072C040103050167000103F3
:104C00002404010303050102090101020103010457
:104C100005000102050101020B000107080501075B
:104C200001002C04010301000101690002040303D7
:104C30002004010302050A01010309000601010421
:104C40000A000107080501070100010401032B0404
:104C50006B000104010303010103200401050901A4
:104C6000010201040A000103050101040A00010711
:104C70000805010702002C046B0001030501010374
:104C80001F040801010201040C00010305010103D6
:104C90000A000107080501070300250403030304B4
:104CA0006B00060101021D0401030102070101025C
:104CB00001040C0001040102050101040A000107BE
:104CC0000805010703000104010321040103010297
:104CD0000301010302046A00070101031C0401032C
:104CE0000102070101030D000104010206010B008E
:104CF0000107080505000104010320040102050164
:104D000002036900080101031B04010301020701FA
:104D100001030D0001040102060101020C00070558
:104D200001060600210401020501010269000801D3
:104D300001031B0401030102070101040D0001032B
:104D4000080101040C000107060501070600010423
:104D500001031F04010206016900070101031C048D
:104D60000102070101040C00010301020801010313
:104D70000E000107040501070800010401031E04D9
:104D8000010307016700070101021C04010207017A
:104D900001040C00010209010103110002070B00CC
:104DA0002004010207016500070101021C04010340
:104DB000070101030C000102090101031F00200487
:104DC0000103010206016500070101031B04010341
:104DD0000102060101030C00010309010103210086
:104DE000010401031E04010306016500060101031D
:104DF0001C040102060101020C0001040901010466
:104E0000100001040203040202030204080020044B
:104E100001020501660004010100080402031204F6
:104E20000103060101020D00010207010102010454
:104E30000F00010301020B010102010407001F041E
:104E400001030501670002010300060401020201DB
:104E5000010201030F0401030102060101040C0019
:104E600001030601010201030F00010401020F0109
:104E700001030600180403030404020003016D008B
:104E800005040102040101020F04010206010103ED
:104E90000C000104060101021000010312010102CD
:104EA0000600160401030301010203047300010359
:104EB00002040103060101030D04010306010102BE
:104EC0000D000102060101040F000104140101029A
:104ED0000600140401030501010301047400030426
:104EE0000102060101030D040102060101040C0088
:104EF0000104060101021000010215010104050070
:104F000001040103120401030501010276000104FA
:104F10000103060101020D040103060101030D0056
:104F20000103060101041000070101020103050449
:104F30000103010206010103060013040103060137
:104F400077000103060101030D04010205010102BE
:104F50000D00010406010103100001030501010217
:104F60000104090001020501010207001304010206
:104F700006017600060101020D040103060101038A
:104F80000D000103060101041000010205010103E7
:104F90000A00010405010102070007040C030102D5
:104FA00006017600060101030D040102050101025C
:104FB0000E000601010311000102050101040A00AF
:104FC00001040501010208000304010303021201A8
:104FD0007600050101020D040103060101030D0025
:104FE00001030601010410000104050101020B0088
:104FF000010205010102010002040600010401038F
:1050000016017500060101020503080401020501ED
:1050100001020E0001020501010311000103050157
:1050200001020A0001030B0101030400010417013E
:1050300075000C0103020503060101030D000104C4
:10504000060101041100010305010103050002042A
:10505000010302020D0101040300010416017600A0
:105060001301010206010E000102050101021200F6
:105070000103050101040400010212010103030000
:10508000010416017700180101030D000104060157
:1050900001041200010305010104030001031301CF
:1050A00001030400010213017900180101040D003D
:1050B00001030501010213000102050101040300BF
:1050C000010212010102050001020601870016011A
:1050D00001020E0006010103130001030501010393
:1050E0000300010209010102010306020103060097
:1050F000010206018A00130101030D0001030601EC
:10510000010413000103050101020300010407016A
:10511000010201040F000102060193000A010104CB
:105120000D00010205010102140001040601010342
:105130000300010401030202010301041200010241
:1051400006019500070101020D000104060101049A
:1051500015000102060101031A0001030601950072
:105160000601010201040D00010305010102160000
:10517000010307010103190001030601950006015F
:105180000F000102050101031700010207010103DD
:105190001800010306019500050101020E0001043B
:1051A00006010104180001020701010317000103B1
:1051B00006019500050101020E000103050101022F
:1051C0001A00010207010102010415000103060192
:1051D0009400060101030E000102050101031B00FA
:1051E00001020801010201041300010406019400F8
:1051F000060101040D000104060101041C00010266
:1052000009010102010311000104060194000601D5
:105210000E000104050101021E0001020B01020340
:1052200001040D00010406019400050101020E00B5
:105230000104050101031F0001030D0101030C001E
:10524000010306019300060101020F0001020301A0
:1052500001022100010401020C0101040B00010301
:1052600006019300060101030F000104030201047B
:10527000230001030B0101030B000103060193004E
:105280000601010439000103090101040B000103B7
:105290000501940006013C00010301020501010320
:1052A0000C00010305019400050101023E00010408
:1052B000030301040D00010305019300060101022F
:1052C0005000010205019300060101035000010294
:1052D000050193000601010450000102050193003D
:1052E00006010104500001020501930005010102BD
:1052F000510006019200060101025000010406015E
:10530000920006010103500001030601920006010C
:10531000010450000103060192000601010450003F
:10532000010205019300050101025100010205017E
:1053300092000601010250000104060192000601DC
:105340000103500001030601920006010104500010
:1053500001020601920006015100010205019300BD
:10536000050101025000010406019300050101023C
:1053700050000103060193000501010250000102E3
:1053800005019400050101034F000104060194008A
:10539000050101034F00010306019400050101030B
:1053A0004F00010206019400050101034E000104B3
:1053B00006019500050101034E0001030601950059
:1053C000050101034E0006019600050101034D0091
:1053D000010306019600050101024D0001020601CC
:1053E0009600050101024C0001030601970005012A
:1053F00001024C00010206019700050101024B0069
:1054000001030601980006014A0001040701980003
:105410000601010449000102060199000601010389
:105420004800010407019A00050101034700010437
:1054300007019B00050101024700010206019C00D3
:1054400006014600010307019C0006010104440017
:10545000010407019D0006010103440008019E00AC
:1054600006011D00020404030802010301041600E2
:10547000010207019F000601010417000104020355
:105480000202100102020104120001020701A00041
:1054900006010102140001040202180101020104C4
:1054A0000F0001020701A20006010104100001041F
:1054B00001021E0101040D0001020701A300060103
:1054C00001030E0001030102210101040B0001028E
:1054D0000801A300060101020B00010401032501DC
:1054E00001040800010401020801A50006010104ED
:1054F0000900010314010C00070101020600010468
:1055000001030901A60006010103070001031001C0
:105510001300070101030300010401030A01A800AD
:1055200006010104050001020D0118000701030234
:105530000B01A90006010102030001040C011B007C
:105540001401AA000701020301020B011E0012014F
:10555000AC00120121001001AD00100124000D016A
:10556000B0000D0127000901B4000B01E60009019C
:10557000E9000401FF00FF00FF00FF00FF00FF0043
:10558000FF00FF00FF00FF00FF00FF00FF00FF0023
:10559000FF00FF00FF00FF00FF00FF00FF00FF0013
:1055A000FF00FF00FF00FF00FF00FF00FF00FF0003
:1055B000FF00FF00FF00FF00FF00FF00FF00FF00F3
:1055C000FF00FF00FF00FF00FF000A00FFFF43593C
:1055D0008B93B2AC14DEBCCE787C512AFF00FF0066
:1055E000FF00FF00FF00FF00FF00FF00FF00FF00C3
:1055F000FF00FF00FF00FF00FF00FF00FF00FF00B3
:10560000FF00FF00FF00FF00FF00FF00FF00FF00A2
:10561000FF00FF00FF00FF00FF00FF00FF00FF0092
:10562000FF00FF00FF0041000501E8000A01A100A2
:1056300005013E000D019E0009013A0010019B008A
:105640000D013600130199000F0133001501980078
:10565000110131000C010102020301020701960051
:1056600012012F000B01020205040102060196003F
:1056700008010203010208012D000B0101020704C9
:105680000103060195000701010201030304010360
:1056900008012B000A0101020A040102050194001D
:1056A00007010102060401030801290009010102A2
:1056B00001030B0401020501940007010103070423
:1056C0000103070127000A0101020D04010206017E
:1056D00092000701010309040102070110001E01E5
:1056E000010201030E0401020601910007010102FB
:1056F0000B040102070102002A0101021004010249
:105700000601910007010C04010332010103110499
:10571000010206019000070101030D04310101039C
:105720001204010206019000060101020D040102AB
:105730002F01010201031304010206018F0007017A
:1057400001030D0401022E010102150401020601EC
:105750008F00060101020E04010212011A02010368
:105760001704010206018E00070101030F04010264
:105770000701040205033304010206018E0006013D
:10578000010211040103030202033D0401020501A9
:105790008E00070101035404010205018E00060179
:1057A0000102550406018E000601010354040103A1
:1057B00007018C0006010102560408018B00060156
:1057C0000102560401020801890007015804010280
:1057D00007018900060101025804010301020701C3
:1057E0008700070101025904010308018500070130
:1057F000010228040205030001052D04010308012C
:1058000083000801010326040A0001052B0401029C
:105810000801820007010102250401050D002B0487
:1058200001020801800007010102250401050F00A3
:105830002B04010207017F00070101022504120069
:105840002B04010207017D00080101032404010566
:1058500013002A04010308017B000801010324044A
:10586000010515002A04010308017A00070101025D
:10587000250417002A04010308017800070101022A
:10588000250419002A04010208017600070101021B
:105890001D040403050419000105040401030106A5
:1058A0000107010601032104010207017500080137
:1058B00001031C0401060407010303041B00030485
:1058C0000106050701062104010207017300080112
:1058D00001031C04010606070103010401051C0065
:1058E00001040103070701032104010207017200FB
:1058F000070101021C0401030707010601041E0041
:1059000001060707010621040103080170000701D1
:1059100001021D04010308071F00010608072204F5
:10592000010308016E00070101021E0401030707BD
:1059300001061F00010608072304010308016C008B
:10594000080101031E040103070701061F000106E9
:1059500008072404010207016B00080101031F046A
:105960000103070701061F000106080725040102BD
:1059700007016A000701010220040103070701066D
:105980001F0001060807260401020701680007013D
:10599000010221040103070701061F000106080791
:1059A0002604010308016600070101022204010622
:1059B000070701060800040513000106080727046D
:1059C000010308016400080101032204010607071E
:1059D0000106050001040202050101020104100094
:1059E00001060807280401030801630007010103F9
:1059F0002304010607070106020001050103010255
:105A00000A01010201050E0001060807290401022E
:105A100007016200070101022404010607070106CD
:105A2000010001030F0101040D0001060807010335
:105A30002904010207016100060101022504010693
:105A400007070202110101040C0001060807010307
:105A50002A04010206016100060101032504010672
:105A60000607150101040B000106080701032A04BB
:105A70000103050162000501010326040106040774
:105A80000E010102080101020B00010608070103D3
:105A90002B0402000201650001010100010327043B
:105AA000010603070B0101020103010502000105C4
:105AB0000103070101030A00010608072C046B001B
:105AC0002804010302070A0101020104070001047E
:105AD000060101020A000106080701052B046B00FC
