:020000040800F2
:10000000A0060020ED010008911700086D110008FE
:100010008D17000865020008C537000800000000C1
:10002000000000000000000000000000A1370008F0
:10003000690200080000000095170008A5370008B5
:10004000070200080702000807020008070200086C
:10005000070200080702000807020008070200085C
:10006000070200080702000807020008070200084C
:10007000070200080702000807020008070200083C
:10008000070200080000000007020008070200083D
:10009000070200080702000807020008070200081C
:1000A000070200080702000807020008070200080C
:1000B00007020008070200080702000807020008FC
:1000C00007020008070200080702000807020008EC
:1000D00007020008070200080702000807020008DC
:1000E00007020008070200080702000807020008CC
:1000F00007020008070200080702000800000000CD
:1001000000000000070200080000000007020008CD
:1001100007020008000000000702000807020008AC
:10012000070200080702000807020008070200088B
:10013000070200080000000000000000070200089D
:10014000070200080702000800000000000000008D
:10015000000000000000000000000000000000009F
:10016000000000000000000000000000070200087E
:10017000070200080000000000000000000000006E
:10018000000000000702000800000000000000005E
:10019000000000000000000000000000000000005F
:1001A000000000000000000007020008070200082D
:1001B000070200080702000807020008000000000C
:1001C000000000000702000800000000000000001E
:1001D0000702000807020008DFF80CD000F02AF838
:1001E00000480047C9370008A0060020064880479D
:1001F00006480047FEE7FEE7FEE7FEE7FEE7FEE70C
:10020000FEE7FEE7FEE7FEE7A9370008D901000890
:10021000D2B201E000F8012B491EFBD27047002248
:10022000F6E710B513460A4604461946FFF7F0FFF5
:10023000204610BD1CB509480090094801900546AC
:10024000009C06E0E06840F0010394E8070098474E
:100250001034AC42F6D3FFF7C3FF000028ED0108CD
:1002600048ED0108FEE70000704700002DE9F04F5F
:100270008DB04EF66831C0F601011B2888BF002002
:1002800001EB0017B7F808804FF6C060C0F201001C
:10029000C8F5A07208EB000156080023B7F80AA0C1
:1002A000B8F5A07F88BF002688BF4B0841460A9357
:1002B000B8F5A07F28BF4FF4A0710491CAF1F001F6
:1002C000002250444FEA5109BAF1F00F00F15000FA
:1002D00084BF4FF00009C0F34F02BAF1F00F0C9247
:1002E000CDF82CA028BF4FF0F00A5FEA094018D0E3
:1002F000002400BFE0B240F23F1101F027F901F005
:10030000BFF900254FF6FF7001F090F9B5F59F7F1A
:1003100005F10105F6D90134A0B21FFA89F188422E
:10032000E8D309EB0A0B1FFA8BF0F02802971AD0DA
:10033000CBF1F000002785B207EB0B00C0B240F212
:100340003F1101F003F901F09BF900244FF6FF7013
:1003500001F06CF9B4F59F7F04F10104F6D901377F
:10036000B8B2A842E8D30B98002818BF5FEA06404D
:100370001AD0701E00271FFA80FBB5B207EB0900E8
:10038000C0B2594601F0E2F801F07AF9002400BF4A
:100390004FF6FF7001F04AF90134A0B2A842F7D33A
:1003A0000137B8B25045E9D30B98002804980644A9
:1003B0001ED0B0B2B0F5A07F1AD0C6F5A07000254F
:1003C00087B200BF05EB0900C0B240F23F1101F057
:1003D000BDF801F055F900244FF6FF7001F026F941
:1003E0000134A0B2B842F7D30135A8B25045E9D3E1
:1003F000029BDDF82CC0998900290846019100F084
:1004000099800A99049F0C9A8CB217FA81F109918C
:100410001FFA89F1891A089140F21001C2F2000115
:1004200002EB0A0EA1EB4402701E023A01EB4701F7
:100430000A9407920239002480B24FF0000A002289
:100440000391069008E000BF1046059C0199013415
:10045000029B8C4202466DD01FFA8AF0604569D239
:100460001868059410F814B0BBF1000FECD000EB45
:1004700044005968407831F810700BE0DDF82CC06A
:100480000AF1010A0020B646ABEB090B5FEA0B61EB
:100490000246DAD01FFA8AF16145D5D2A8EB0200F4
:1004A00080B25FFA8BF9484538BF81460C9800232B
:1004B00088424FF0000098BF01208E4588BF01237D
:1004C0000340012B09EB020019D195B20A9A95421B
:1004D00098BF1546099C82B29442024638BF224614
:1004E00092B295420BD2079E6C1C06EB450500BFED
:1004F000A6B225F8027FB24204F10104F8D182B21B
:100500004245C1D37646002BB8D0089808440699D6
:10051000C0B201F01BF801F0B3F8B8F1000FADD094
:10052000DDE9034534F8020901F080F8013D2804B3
:10053000F8D1A3E70DB0BDE8F08F000010B540F290
:100540009024C2F200042078FFF790FE2078411C2E
:10055000C8B21B2888BF002100202170BDE81040D0
:10056000AFF30080B0B5044600F0EAF8054640F26B
:100570000800C2F200000068611C18BF044400BFFC
:1005800000F0DEF8401BA042FAD3B0BD2DE9F04FD9
:1005900083B00F68002F00F0CA8000F1200241F202
:1005A000004540F2004A019200F13842C4F60005CD
:1005B0000623C4F2010A4FEAB226A84208BF052367
:1005C00000254FF0010E4FF0030B00244FF0000800
:1005D000052E38BF4FEAB22300930AE00F6808F1F6
:1005E000010837FA08F204F1020405F1040500F0ED
:1005F0009E800EFA08F217EA020CEFD04F68122F15
:1006000017D80EFA07F616F0061F12D0D0F8089089
:10061000CE680BFA04F329EA0303A6403343836050
:10062000436823EA0202C7F3001303FA08F31A43EC
:100630004260C2688B680BFA04F922EA0902A340FF
:100640001A4347F01003122BC26017D16FF0030258
:10065000DDF804B002EA58025BF8023005F01C062F
:100660000F27D1F810E0B740BB430EFA06F73B4323
:100670004FF0010E4BF802304FF0030B03684F6848
:100680006FEA09021A4007F00303A3401A43FB0074
:100690000260A3D541F26003C4F202031A684FF668
:1006A000084942F001021A601A68CFF6FF7902F099
:1006B00001020292029A28F00302524452F80930D1
:1006C00005F00C070F26BE40B343009E06FA07F75D
:1006D0003B4342F80930DAF800204B6842EA0C0745
:1006E000DE0358BF22EA0C07CAF80070DAF80420CB
:1006F0009E0342EA0C0758BF22EA0C07CAF80470AE
:10070000DAF80820DE0242EA0C0740F20C4658BF35
:1007100022EA0C07CAF80870C4F2010632689B028C
:1007200042EA0C0758BF22EA0C07376056E703B0CD
:10073000BDE8F08F1823002A08BF2823C150704756
:1007400040F29820C2F200000068704740F20800B2
:1007500040F29821C2F20000C2F2000100680A686B
:10076000104408607047000080B5032000F080F856
:10077000002000F009F800281CBF012080BD00F017
:1007800031F8002080BD000040F20801C2F20001F3
:100790000968002904BF0120704710B5044640F2E3
:1007A0000400C2F200004FF47A720068B2FBF1F16B
:1007B000B0FBF1F000F0C4FC01460F2C4FF001003B
:1007C0000ED8002918BF10BD4FF0FF30214600227F
:1007D00000F022F840F20C010020C2F200010C608F
:1007E00010BD000082B041F25800C4F202008168DE
:1007F00041F001018160816801F0010101910199DD
:10080000016841F080510160006800F08050009064
:10081000009802B000F0B6B810B54EF60C5CCEF2FF
:10082000000CDCF80030C3F3022E8EF00704042C19
:1008300028BF0424BEF103034FF0FF3E0EFA04F478
:1008400038BF0023A14399400EFA03F39A431143A2
:1008500000F1604200F00F03090102F56442043B1D
:100860006344002848BF03F10C02117010BD000062
:100870004EF60C51CEF200010A684FF6FF031A4003
:1008800060F30A2242F0806040F0FD70086070471B
:1008900047F2000CC4F2000CDCF80020B0F5007F39
:1008A00035D0002866D1DCF8800002F4C06220F464
:1008B0008070B2F5806FCCF8800026D1DCF80000A3
:1008C000012262F34A20CCF8000040F20400C2F298
:1008D00000000068322358434DF68363C4F21B3393
:1008E000A0FB030302EB9340002200BFDCF81410CE
:1008F000013842F10003490501D5002BF6D1DCF89F
:100900001400400544BF0320704700207047DCF806
:10091000800002F4C06140F48070B1F5806FCCF8C3
:100920008000F2D1DCF80000012161F34A20CCF80C
:10093000000040F20400C2F200000068322250437E
:100940004DF68362C4F21B32A0FB020201EB92401F
:10095000002200BFDCF81410013842F10003490501
:1009600001D5002BF6D1DCF81400400544BF03206C
:100970007047CAE7022060F34A22CCF8002000202A
:100980007047000047F20800C4F20000016841F41B
:1009900080410160704700002DE9F047002800F019
:1009A000FE8042F2000AC4F2020A0446DAF80000AD
:1009B0000D4600F00F0088420DD2DAF8000020F05A
:1009C0000F002843CAF80000DAF8000000F00F001A
:1009D000A84240F0E480216841F20808C807C4F248
:1009E00002080CD14FF00009206881074BD4B9F1FF
:1009F000000F61D0D8F8000020F0F0005AE06068E5
:100A000058F8082C022800F0C880032840F0CA805B
:100A1000920140F1C480D8F80420D8F8043042F2A2
:100A20000046C3F3031302F00302D8F80470013345
:100A3000C0F2F406032A04BF43F20066C0F26E1649
:100A4000B6FBF3F2D8F80430C7F306277A43C3F3B2
:100A50004163022707EB4303B2FBF3F24BF200437F
:100A6000C0F2C4439A4240F2E480D8F8002012F069
:100A7000F00F00F0D480890740F1DB80A1680029E5
:100A800040F0D780CBE0410705D5D8F8001041F4FD
:100A9000E061C8F80010000706D5D8F8000007216B
:100AA00061F30D20C8F80000D8F80000A16820F01C
:100AB000F0000843C8F80000DAF8000000F00F006A
:100AC000A84219D9DAF8000020F00F002843CAF82C
:100AD0000000FFF735FE064641F28837DAF80000DD
:100AE00000F00F00A84207D0FFF72AFE801BB84293
:100AF000F4D90320BDE8F0872068410707D5D8F86E
:100B00000010E26821F4E0611143C8F8001000070A
:100B100008D5D8F80000216920F4605040EAC100EF
:100B2000C8F80000D8F8000042F20041C0F2F40119
:100B300000F00C000428084600F09C80D8F8000063
:100B400000F00C00082843F20060C0F26E1000F0C4
:100B50009180D8F8002002F00C020C2A40F0898025
:100B6000D8F80420D8F8043002F00302C3F30313CA
:100B7000D8F804700133032A08BF0146B1FBF3F033
:100B8000D8F80410C7F30627C1F341610222784365
:100B900002EB4101B0FBF1F06CE0910304D40120C1
:100BA000BDE8F0875105FAD5D8F8001001F00C0126
:100BB00004293ED0D8F8001001F00C01082938D0E3
:100BC000D8F8001001F00C010C2932D1D8F804102B
:100BD000D8F8042042F20047C2F3031201F00301E7
:100BE000D8F804300132C0F2F407032904BF43F2FD
:100BF0000067C0F26E17B7FBF2F1D8F80420C3F318
:100C000006235943C2F34162022303EB4202B1FBC4
:100C1000F2F14BF20042C0F2C442914209D9D8F835
:100C20000010082262F307114FF00109C8F8001004
:100C300001E04FF00009D8F8001021F0030108434B
:100C4000C8F80000FFF77CFD064641F2883700BF78
:100C5000D8F80000616800F00C00B0EB810F3FF4A1
:100C6000C3AEFFF76DFD801BB842F1D90320BDE88C
:100C7000F0870020D8F8001043F68C02C1F303116E
:100C8000C0F60002515C40F2040201F01F0120FA9C
:100C900001F140F20C00C2F200000068C2F2000252
:100CA0001160BDE8F047FFF76FBD0000002804BFEA
:100CB000012070472DE9F04182B00446007841F2EE
:100CC0000006C007C4F202061DD12078800737D481
:100CD000207800075AD42078400778D420788006FE
:100CE00000F1BF80E069002800F0CD81B16801F01B
:100CF0000C010C2940F01E81012840F08C8101205C
:100D000002B0BDE8F081B06800F00C01F06808297D
:100D100054D0032281F00C0122EA00000844B0FA0A
:100D200080F040094AD165683068B5F5A02F00F021
:100D3000C680B5F5803F40F0C98040F48030CBE0FC
:100D4000B068F16800F00C00042864D001F00301E1
:100D500080F00C0081F002010844B0FA80F04009F4
:100D600059D1E1683068002900F0D18040F48070EA
:100D70003060FFF7E5FC05463068400500F1F08083
:100D8000FFF7DEFC401B0228F6D92AE16169D6F89C
:100D90009400002900F0818040F00100C6F8940022
:100DA000FFF7CEFC054600BFD6F89400800792D42A
:100DB000FFF7C6FC401B0228F6D912E13068800319
:100DC0007FF583AF606800287FF47FAF39E0B06DB6
:100DD0005FEAC00808D4B06D40F08050B065B06DD7
:100DE00000F080500190019847F20007C4F200071C
:100DF0003868C00529D4386840F480703860FFF73F
:100E00009FFC05463868C0051FD4FFF799FC401BBE
:100E10000228F7D9E5E03068400501D5E06880B1E7
:100E20007068216920F0FE4040EA0160706040F285
:100E30000C00C2F200000068FFF7A6FC00283FF497
:100E400047AF012002B0BDE8F081A568D6F8900058
:100E5000052D00F0A280012D40F0A88040F0010097
:100E6000ACE0A169D6F89800002900F0818040F03C
:100E70000100C6F89800FFF763FC0546D6F8980015
:100E800080073FF52FAFFFF75BFC401B02284FF0B8
:100E90000300F3D902B0BDE8F08120F00100C6F8EC
:100EA0009400FFF74DFC0546D6F8940080077FF5C7
:100EB00012AFFFF745FC401B0228F5D991E040F442
:100EC00080203060306840F4803005E020F48030CD
:100ED0003060306820F480203060FFF731FC002D56
:100EE000054610D0306880033FF5EFAEFFF728FCD1
:100EF000401B6428F6D974E0FFF722FC401B6428ED
:100F00004FF00300C6D830688003F5D4DDE620F446
:100F100080703060FFF714FC054600BF3068400564
:100F20007FF5D6AEFFF70CFC401B02284FF0030004
:100F3000F4D9AFE73168022821F08071316040F0C8
:100F4000A680FFF7FDFB05463068800140F1B980BF
:100F5000FFF7F6FB401B02284FF00300F4D999E796
:100F60007068216920F0FE4040EA01607060AFE6E1
:100F700020F00100C6F89800FFF7E2FB054600BF2D
:100F8000D6F8980080077FF5ADAEFFF7D9FB401B80
:100F900002284FF00300F3D97CE740F00400C6F8C4
:100FA0009000D6F8900040F0010007E020F001002A
:100FB000C6F89000D6F8900020F00400C6F8900023
:100FC000FFF7BEFB002D054641F2883716D000BF63
:100FD000D6F89000800715D4FFF7B2FB401BB8424B
:100FE000F6D9032002B0BDE8F08100BFFFF7A8FBEF
:100FF000401BB8424FF003003FF64CAFD6F89000CC
:101000008007F3D4B8F1000F3FF568AEB06D20F063
:101010008050B06562E6F068216A00F003028A42FF
:101020007FF40FAF626A6FF00F0300F0F00103EB83
:10103000021291427FF405AFA16A00F4FE42B2EBC6
:10104000012F7FF4FEAEE16A00F07842B2EBC16F8F
:101050007FF4F7AE226B0023CFF6E07303EA02526F
:1010600000F4C001A2F5001291427FF4EAAE616B78
:101070004FF07E4202EA016100F0C06001F17E4162
:1010800088427FF4DEAE002002B0BDE8F081F06857
:101090004FF6FF7120F00300F060F068CFF6EE61CC
:1010A0000840F060FFF74CFB044600BF3068800149
:1010B000E9D5FFF745FB001B02284FF00300F5D9E7
:1010C000E8E6F06848F20C01C0F29F1104F1200735
:1010D00000EA010C8ECF6FF00F00D4E90C5400EB46
:1010E00002100022CFF6E07241EA0C0102EA05523A
:1010F0000843A2F500124FF07E4540EA032005EABE
:101100000465104305F17E4540EAC7602843F0605E
:10111000306840F080703060F06840F08070F060BF
:10112000FFF70EFB044600BF30688001ABD4FFF729
:1011300007FB001B02284FF00300F5D9AAE60000C8
:10114000411E0020B0EB116F1CBF012070474EF212
:101150001002CEF2000251604EF62351CEF2000191
:10116000F0230B700721906011607047FEE70000CC
:1011700040F21841C4F60001D1F8FCC30B6943F4F6
:1011800000730B610B6943F480730B610B6843F0D0
:1011900020030B602023C1F8FC330B6943F02003CC
:1011A0000B6100BF00BF00BF0B6843F020030B6062
:1011B0000B6843F480730B600023C1F8FC330A69A9
:1011C00042F020020A6100BF00BF00BF0A6842F07F
:1011D00020020A600A6842F480720A600A6942F4D6
:1011E00000720A610A6942F480720A610A6842F078
:1011F00020020A602122C1F8FC230A6942F0200281
:101200000A6100BF00BF00BF0A6842F020020A6006
:101210000A6842F480720A60C1F8FC330A694FF42C
:10122000963342F020020A6100BF00BF00BF0A6887
:1012300042F020020A600A6842F480720A600A6979
:1012400042F400720A610A6942F480720A610A6813
:1012500042F020020A602222C1F8FC230A6942F00F
:1012600020020A6100BF00BF00BF0A6842F02002EE
:101270000A600A6842F480720A6000BF00BF00BFC3
:101280000A6842F400720A600A69013B42F4007283
:101290000A610A6842F480720A600A6842F0200219
:1012A0000A60C1F8FC030A6942F020020A6100BF2B
:1012B00000BF00BF0A6842F020020A600A6842F4D8
:1012C00080720A6000BF00BF00BF0A6842F400726B
:1012D0000A60D9D11FFA8CF0C1F8FC0370470000F6
:1012E0002DE9F04F8BB040F61408C4F60008D8F88A
:1012F00000000025009041F24C000595CDE9035512
:10130000CDE90155C4F20200016840F2184741F0EE
:10131000040101600168C4F6000701F004010691B0
:101320000699016801AC41F00101016001684FF0CC
:10133000030901F00101069106990168012641F0B7
:10134000020101600068214600F002000690069844
:101350004FF44870019001200290A7F11800CDE9E8
:101360000359FFF713F94FF48070CDE901064FF0F0
:1013700090402146CDE90359FFF708F94FF6FF7079
:1013800007F57A74069006A920460A9508954FF647
:10139000FF7A0796CDF82490FFF7F8F84FF6004B48
:1013A000CFF6FF7B57F80B0006A940F4807047F892
:1013B0000B0038684FF6FF7640F4087038603869E3
:1013C00040F400703861386940F4807038613868E2
:1013D00040F020003860C8F80050386940F0200024
:1013E000386100BF00BF00BF386840F0200038609F
:1013F000386840F48070386020460A950895CDE939
:1014000006A5CDF82490FFF7C1F84FF61048CFF6A7
:10141000FF7857F8080006A940F4807047F80800E4
:1014200000BF00BF00BFD7F8F8A357F80B0040F487
:10143000807047F80B0001200A9508950790204618
:101440000696CDF82490FFF7A1F8386848F23021CD
:1014500040F40070386040F29420C2F20000A0F81E
:1014600000A00088884202D100F096F901E000F067
:1014700007FF3869002640F40070386138694FF67C
:10148000FF7940F48070386138684FF0030A40F00B
:101490002000386040F61400C4F600000660386989
:1014A00006A940F02000386100BF00BF00BF3868C7
:1014B00040F020003860386840F480703860204682
:1014C0000A96CDE90766CDF81890CDF824A0FFF76D
:1014D0005DF857F8080006A940F4807047F8080046
:1014E00000BF00BF00BFD7F8F85357F80B0040F417
:1014F000807047F80B0001200A9608960790204656
:10150000CDF81890CDF824A0FFF740F8386840F6E1
:10151000140140F40070386040F29420C2F20000E0
:1015200005800098C4F6000180B208600BB0BDE8E9
:10153000F08F000081B0ADF80200BDF8020040F26B
:101540000001C2F20001088001B0704740F2184269
:10155000C4F60002136943F400731361136943F482
:1015600080731361136843F0200313602023C2F8D3
:10157000FC33136943F02003136100BF00BF00BFB9
:10158000136843F020031360136843F480731360FF
:10159000C2F8FC03106940F02000106100BF00BFDA
:1015A00000BF106840F020001060106840F48070A8
:1015B0001060106940F400701061106940F4807090
:1015C0001061106840F0200010602120C2F8FC0378
:1015D000106940F02000106100BF00BF00BF10681C
:1015E00040F020001060106840F480701060C2F875
:1015F000FC13106940F02000106100BF00BF00BF65
:10160000106840F020001060106840F48070106096
:101610007047000081B0ADF80200BDF8020040F252
:101620009221C2F20001088001B0704740F21841D7
:10163000C4F600010A6942F400720A610A6842F4C1
:1016400080720A600A6842F020020A60C1F8FC0356
:10165000086940F02000086100BF00BF00BF0868B3
:1016600040F020000860086840F48070086000BF07
:1016700000BF00BF086840F40070086070470000B9
:1016800040F21840C4F60000016941F400710161A4
:10169000016941F480710161016841F0200101603C
:1016A0002221C0F8FC13016941F02001016100BF53
:1016B00000BF00BF016841F020010160016841F4F2
:1016C0008071016000BF00BF00BF016841F400717C
:1016D000016070472DE9F04387B0002741F24C00CC
:1016E0000697CDE90477CDE90277C4F202000168DC
:1016F00040F6000441F0040101600168C4F60004F2
:1017000001F00401019101990168012241F02001D9
:10171000016001684FF47F4601F0200101910199B9
:1017200001684FF0010841F001010160016801F01A
:10173000010101910199016841F00801016000680F
:101740004FF47F4100F00800019001982046FEF719
:10175000F1FF04F580652846042101224FF00409B9
:10176000FEF7E8FFCDE9026802AE20463146CDE93A
:101770000477FEF70BFF28463146CDE90298CDE904
:101780000477FEF703FF07B0BDE8F083FEE7000033
:10179000FEE700007047000040F21840C4F6000069
:1017A0000169002241F40071016101694FF0030CED
:1017B00041F480710161016841F020010160C0F8CD
:1017C000FC23016941F02001016100BF00BF00BF9F
:1017D000016841F020010160016841F480710160FD
:1017E0000121C0F8FC13036943F02003036100BF2B
:1017F00000BF00BF036843F020030360036843F4A5
:1018000080730360036943F400730361036943F465
:1018100080730361036843F020030360C0F8FC1386
:10182000036943F02003036100BF00BF00BF0368EA
:1018300043F020030360036843F480730360C0F83F
:10184000FC23026942F02002026100BF00BF00BF1A
:10185000026842F020020260026842F48072026074
:10186000026942F400720261026942F4807202610C
:10187000026842F0200202601022C0F8FC230269D4
:1018800042F02002026100BF00BF00BF026842F0C8
:1018900020020260026842F48072026041F290729B
:1018A000C0F8FC23026942F02002026100BF00BFC1
:1018B00000BF026842F020020260026842F48072B7
:1018C0000260026942F400720261026942F48072AD
:1018D0000261026842F0200202606022C0F8FC232C
:1018E000026942F02002026100BF00BF00BF02682F
:1018F00042F020020260026842F4807202604FF4FB
:101900001C52C0F8FC23026942F02002026100BFB1
:1019100000BF00BF026842F020020260026842F489
:1019200080720260026942F400720261026942F44C
:1019300080720261026842F0200202606122C0F8F7
:10194000FC23026942F02002026100BF00BF00BF19
:10195000026842F020020260026842F48072026073
:10196000C0F8FC13016941F02001016100BF00BF14
:1019700000BF016841F020010160016841F48071FD
:101980000160016941F400710161016941F48071F4
:101990000161016841F0200101604621C0F8FC139B
:1019A000016941F02001016100BF00BF00BF016873
:1019B00041F020010160016841F480710160022161
:1019C000C0F8FC13026942F02002026100BF00BFB0
:1019D00000BF026842F020020260026842F4807296
:1019E0000260026942F400720261026942F480728C
:1019F0000261026842F0200202601322C0F8FC2358
:101A0000026942F02002026100BF00BF00BF02680D
:101A100042F020020260026842F48072026048F2E2
:101A20001002C0F8FC23026942F02002026100BFEC
:101A300000BF00BF026842F020020260026842F468
:101A400080720260026942F400720261026942F42B
:101A500080720261026842F0200202601222C0F825
:101A6000FC23026942F02002026100BF00BF00BFF8
:101A7000026842F020020260026842F48072026052
:101A800048F2FE02C0F8FC23026942F02002026123
:101A900000BF00BF00BF026842F02002026002687F
:101AA00042F480720260026942F4007202610269CB
:101AB00042F480720261026842F020020260C0F8C3
:101AC000FC13016941F02001016100BF00BF00BFAC
:101AD000016841F020010160016841F480710160FA
:101AE0004FF4A061C0F8FC13016941F020010161CD
:101AF00000BF00BF00BF016841F020010160016824
:101B000041F480710160016941F400710161016972
:101B100041F480710161016841F020010160C0F869
:101B2000FCC3026942F02002026100BF00BF00BF97
:101B3000026842F020020260026842F48072026091
:101B400041F23002C0F8FC23026942F02002026137
:101B500000BF00BF00BF026842F0200202600268BE
:101B600042F480720260026942F40072026102690A
:101B700042F480720261026842F020020260302268
:101B8000C0F8FC23026942F02002026100BF00BFDE
:101B900000BF026842F020020260026842F48072D4
:101BA000026040F20332C0F8FC23036943F02003D3
:101BB000036100BF00BF00BF036843F02003036060
:101BC000036843F480730360036943F400730361A3
:101BD000036943F480730361036843F020030360E7
:101BE0003123C0F8FC33036943F02003036100BFD5
:101BF00000BF00BF036843F020030360036843F4A1
:101C000080730360C0F8FC23036943F02003036181
:101C100000BF00BF00BF036843F0200303600368F8
:101C200043F480730360036943F400730361036941
:101C300043F480730361036843F02003036032239D
:101C4000C0F8FC33036943F02003036100BF00BF09
:101C500000BF036843F020030360036843F480730C
:101C60000360C0F8FC23036943F02003036100BF55
:101C700000BF00BF036843F020030360036843F420
:101C800080730360036943F400730361036943F4E1
:101C900080730361036843F0200303603323C0F8BB
:101CA000FC33036943F02003036100BF00BF00BFA2
:101CB000036843F020030360036843F48073036008
:101CC0004FF44073C0F8FC33016941F02001016119
:101CD00000BF00BF00BF016841F020010160016842
:101CE00041F480710160016941F400710161016991
:101CF00041F480710161016841F0200101603421EB
:101D0000C0F8FC13016941F02001016100BF00BF70
:101D100000BF016841F020010160016841F4807159
:101D20000160C0F8FCC3016941F02001016100BFFE
:101D300000BF00BF016841F020010160016841F46B
:101D400080710160016941F400710161016941F430
:101D500080710161016841F0200101603521C0F806
:101D6000FC13016941F02001016100BF00BF00BF09
:101D7000016841F020010160016841F48071016057
:101D8000C0F8FC23016941F02001016100BF00BFE0
:101D900000BF016841F020010160016841F48071D9
:101DA0000160016941F400710161016941F48071D0
:101DB0000161016841F0200101603621C0F8FC1387
:101DC000016941F02001016100BF00BF00BF01684F
:101DD00041F020010160016841F48071016014212B
:101DE000C0F8FC13016941F02001016100BF00BF90
:101DF00000BF016841F020010160016841F4807179
:101E00000160016941F400710161016941F480716F
:101E10000161016841F0200101603721C0F8FC1325
:101E2000016941F02001016100BF00BF00BF0168EE
:101E300041F020010160016841F480710160C0F847
:101E4000FC23016941F02001016100BF00BF00BF18
:101E5000016841F020010160016841F48071016076
:101E6000016941F400710161016941F4807101610E
:101E7000016841F0200101603821C0F8FC130169BC
:101E800041F02001016100BF00BF00BF016841F0C7
:101E900020010160016841F480710160C0F8FC23F9
:101EA000016941F02001016100BF00BF00BF01686E
:101EB00041F020010160016841F480710160016915
:101EC00041F400710161016941F4807101610168AF
:101ED00041F0200101603921C0F8FC13016941F093
:101EE0002001016100BF00BF00BF016841F0200177
:101EF0000160016841F480710160C0F8FC23016950
:101F000041F02001016100BF00BF00BF016841F046
:101F100020010160016841F480710160016941F4B0
:101F200000710161016941F480710161016841F052
:101F3000200101603A21C0F8FC13016941F0200141
:101F4000016100BF00BF00BF016841F020010160D6
:101F5000016841F480710160C0F8FC33016941F00F
:101F60002001016100BF00BF00BF016841F02001F6
:101F70000160016841F480710160016941F4007100
:101F80000161016941F480710161016841F0200142
:101F900001603B21C0F8FC13016941F0200101619F
:101FA00000BF00BF00BF016841F02001016001686F
:101FB00041F480710160C0F8FCC3016941F0200167
:101FC000016100BF00BF00BF016841F02001016056
:101FD000016841F480710160016941F4007101619F
:101FE000016941F480710161016841F020010160E3
:101FF0003C21C0F8FC13016941F02001016100BFE0
:1020000000BF00BF016841F020010160016841F498
:1020100080710160C0F8FC23016941F02001016179
:1020200000BF00BF00BF016841F0200101600168EE
:1020300041F480710160016941F40071016101693D
:1020400041F480710161016841F0200101603D218E
:10205000C0F8FC13016941F02001016100BF00BF1D
:1020600000BF016841F020010160016841F4807106
:1020700001604FF4A051C0F8FC13016941F0200148
:10208000016100BF00BF00BF016841F02001016095
:10209000016841F480710160016941F400710161DE
:1020A000016941F480710161016841F02001016022
:1020B0009221C0F8FC13016941F02001016100BFC9
:1020C00000BF00BF016841F020010160016841F4D8
:1020D000807101604FF40071C0F8FC13016941F098
:1020E0002001016100BF00BF00BF016841F0200175
:1020F0000160016841F480710160016941F400717F
:102100000161016941F480710161016841F02001C0
:1021100001609321C0F8FC13016941F020010161C5
:1021200000BF00BF00BF016841F0200101600168ED
:1021300041F480710160C0F8FC23016941F0200185
:10214000016100BF00BF00BF016841F020010160D4
:10215000016841F480710160016941F4007101611D
:10216000016941F480710161016841F02001016061
:102170009021C0F8FC13016941F02001016100BF0A
:1021800000BF00BF016841F020010160016841F417
:102190008071016040F60D01C0F8FC13016941F047
:1021A0002001016100BF00BF00BF016841F02001B4
:1021B0000160016841F480710160016941F40071BE
:1021C0000161016941F480710161016841F0200100
:1021D0000160C0F8FCC3016941F02001016100BF4A
:1021E00000BF00BF016841F020010160016841F4B7
:1021F0008071016041F21801C0F8FC13016941F0DF
:102200002001016100BF00BF00BF016841F0200153
:102210000160016841F480710160016941F400715D
:102220000161016941F480710161016841F020019F
:1022300001600721C0F8FC13016941F02001016130
:1022400000BF00BF00BF016841F0200101600168CC
:1022500041F48071016040F27311C0F8FC13016910
:1022600041F02001016100BF00BF00BF016841F0E3
:1022700020010160016841F4807101607047000035
:102280002DE9F04F81B040F21844C4F600042069F3
:102290004FF0120940F4007020612069002540F4DD
:1022A000807020612068112640F020002060E3202B
:1022B000C4F8FC0320694FF0130B40F020002061AC
:1022C00000BF00BF00BF2068102740F02000206042
:1022D00020684FF0070840F48070206043F2080047
:1022E000C4F8FC03206940F02000206100BF00BF5B
:1022F00000BF206840F020002060206840F480701B
:102300002060206940F400702061206940F48070F2
:102310002061206840F020002060E720C4F8FC0322
:10232000206940F02000206100BF00BF00BF20688E
:1023300040F020002060206840F480702060C4F8E5
:10234000FC93206940F02000206100BF00BF00BF67
:10235000206840F020002060206840F480702060F9
:10236000206940F400702061206940F48070206191
:10237000206840F020002060EF20C4F8FC032069B2
:1023800040F02000206100BF00BF00BF206840F087
:1023900020002060206840F48070206041F23120ED
:1023A000C4F8FC03206940F02000206100BF00BF9A
:1023B00000BF206840F020002060206840F480705A
:1023C0002060206940F400702061206940F4807032
:1023D0002061206840F0200020600120C4F8FC0348
:1023E000206940F02000206100BF00BF00BF2068CE
:1023F00040F020002060206840F480702060C4F825
:10240000FC53206940F02000206100BF00BF00BFE6
:10241000206840F020002060206840F48070206038
:10242000206940F400702061206940F480702061D0
:10243000206840F0200020600220C4F8FC032069DE
:1024400040F02000206100BF00BF00BF206840F0C6
:1024500020002060206840F4807020604FF4E0602D
:10246000C4F8FC03206940F02000206100BF00BFD9
:1024700000BF206840F020002060206840F4807099
:102480002060206940F400702061206940F4807071
:102490002061206840F0200020600320C4F8FC0385
:1024A000206940F02000206100BF00BF00BF20680D
:1024B00040F020002060206840F48070206041F2ED
:1024C0003000C4F8FC03206940F02000206100BF08
:1024D00000BF00BF206840F020002060206840F46A
:1024E00080702060206940F400702061206940F411
:1024F00080702061206840F0200020600420C4F833
:10250000FC03206940F02000206100BF00BF00BF35
:10251000206840F020002060206840F48070206037
:10252000C4F8FC53206940F02000206100BF00BFC8
:1025300000BF206840F020002060206840F48070D8
:102540002060206940F400702061206940F48070B0
:102550002061206840F0200020600820C4F8FC03BF
:10256000206940F02000206100BF00BF00BF20684C
:1025700040F020002060206840F48070206040F22D
:102580000720C4F8FC03206940F02000206100BF50
:1025900000BF00BF206840F020002060206840F4A9
:1025A00080702060206940F400702061206940F450
:1025B00080702061206840F0200020600920C4F86D
:1025C000FC03206940F02000206100BF00BF00BF75
:1025D000206840F020002060206840F48070206077
:1025E000C4F8FC53206940F02000206100BF00BF08
:1025F00000BF206840F020002060206840F4807018
:102600002060206940F400702061206940F48070EF
:102610002061206840F0200020600A20C4F8FC03FC
:10262000206940F02000206100BF00BF00BF20688B
:1026300040F020002060206840F480702060C4F8E2
:10264000FC53206940F02000206100BF00BF00BFA4
:10265000206840F020002060206840F480702060F6
:10266000206940F400702061206940F4807020618E
:10267000206840F0200020600C20C4F8FC03206992
:1026800040F02000206100BF00BF00BF206840F084
:1026900020002060206840F480702060C4F8FC5363
:1026A000206940F02000206100BF00BF00BF20680B
:1026B00040F020002060206840F480702060206995
:1026C00040F400702061206940F48070206120682F
:1026D00040F0200020600D20C4F8FC03206940F089
:1026E0002000206100BF00BF00BF206840F0200034
:1026F0002060206840F480702060C4F8FC5320699A
:1027000040F02000206100BF00BF00BF206840F003
:1027100020002060206840F480702060206940F430
:1027200000702061206940F480702061206840F0D2
:10273000200020600F20C4F8FC03206940F0200036
:10274000206100BF00BF00BF206840F02000206073
:10275000206840F480702060C4F8FC53206940F089
:102760002000206100BF00BF00BF206840F02000B3
:102770002060206840F480702060206940F4007080
:102780002061206940F480702061206840F02000C2
:1027900020601020C4F8FC03206940F02000206174
:1027A00000BF00BF00BF206840F02000206020680C
:1027B00040F480702060C4F8FC53206940F0200091
:1027C000206100BF00BF00BF206840F020002060F3
:1027D000206840F480702060206940F4007020611F
:1027E000206940F480702061206840F02000206063
:1027F000C4F8FC63206940F02000206100BF00BFE6
:1028000000BF206840F020002060206840F4807005
:1028100020600720C4F8FC03206940F020002061FC
:1028200000BF00BF00BF206840F02000206020688B
:1028300040F480702060206940F4007020612069BD
:1028400040F480702061206840F020002060C4F8CF
:10285000FC93206940F02000206100BF00BF00BF52
:10286000206840F020002060206840F480702060E4
:10287000C4F8FC53206940F02000206100BF00BF75
:1028800000BF206840F020002060206840F4807085
:102890002060206940F400702061206940F480705D
:1028A0002061206840F020002060C4F8FCB320695B
:1028B00040F02000206100BF00BF00BF206840F052
:1028C00020002060206840F480702060C4F8FC5331
:1028D000206940F02000206100BF00BF00BF2068D9
:1028E00040F020002060206840F480702060C82004
:1028F000FDF738FE20694FF0320A40F40070206185
:10290000206940F480702061206840F02000206041
:10291000C4F8FC732069102740F02000206100BF3C
:1029200000BF00BF206840F020002060206840F415
:102930008070206041F29060C4F8FC03206940F090
:102940002000206100BF00BF00BF206840F02000D1
:102950002060206840F480702060206940F400709E
:102960002061206940F480702061206840F02000E0
:102970002060C4F8FC63206940F02000206100BFA3
:1029800000BF00BF206840F020002060206840F4B5
:102990008070206040F22720C4F8FC03206940F0DA
:1029A0002000206100BF00BF00BF206840F0200071
:1029B0002060206840F4807020603220FDF7D2FD56
:1029C000206940F400702061206940F4807020612B
:1029D000206840F020002060C4F8FC93206940F09B
:1029E0002000206100BF00BF00BF206840F0200031
:1029F0002060206840F4807020601D20C4F8FC0333
:102A0000206940F02000206100BF00BF00BF2068A7
:102A100040F020002060206840F480702060322068
:102A2000FDF7A0FD206940F400702061206940F4AA
:102A300080702061206840F020002060C4F8FCB362
:102A4000206940F02000206100BF00BF00BF206867
:102A500040F020002060206840F4807020604FF437
:102A60000060C4F8FC03206940F02000206100BF32
:102A700000BF00BF206840F020002060206840F4C4
:102A800080702060206940F400702061206940F46B
:102A900080702061206840F0200020602920C4F868
:102AA000FC03206940F02000206100BF00BF00BF90
:102AB000206840F020002060206840F48070206092
:102AC0001420C4F8FC03206940F02000206100BFFE
:102AD00000BF00BF206840F020002060206840F464
:102AE00080702060206940F400702061206940F40B
:102AF00080702061206840F0200020602B20C4F806
:102B0000FC03206940F02000206100BF00BF00BF2F
:102B1000206840F020002060206840F48070206031
:102B20000B20C4F8FC03206940F02000206100BFA6
:102B300000BF00BF206840F020002060206840F403
:102B4000807020603220FDF70DFD2069032140F4E4
:102B5000007020612069072240F4807020612068A5
:102B600040F0200020602020C4F8FC03206940F0E1
:102B70002000206100BF00BF00BF206840F020009F
:102B80002060206840F480702060C4F8FC53206905
:102B900040F02000206100BF00BF00BF206840F06F
:102BA00020002060206840F480702060206940F49C
:102BB00000702061206940F480702061206840F03E
:102BC000200020602120C4F8FC03206940F0200090
:102BD000206100BF00BF00BF206840F020002060DF
:102BE000206840F480702060C4F8FC53206940F0F5
:102BF0002000206100BF00BF00BF206840F020001F
:102C00002060206840F480702060206940F40070EB
:102C10002061206940F480702061206840F020002D
:102C200020603020C4F8FC03206940F020002061BF
:102C300000BF00BF00BF206840F020002060206877
:102C400040F480702060C4F8FC83206940F02000CC
:102C5000206100BF00BF00BF206840F0200020605E
:102C6000206840F480702060206940F4007020618A
:102C7000206940F480702061206840F020002060CE
:102C80003120C4F8FC03206940F02000206100BF1F
:102C900000BF00BF206840F020002060206840F4A2
:102CA0008070206040F20770C4F8FC03206940F097
:102CB0002000206100BF00BF00BF206840F020005E
:102CC0002060206840F480702060206940F400702B
:102CD0002061206940F480702061206840F020006D
:102CE0002060C4F8FCA3206940F02000206100BFF0
:102CF00000BF00BF206840F020002060206840F442
:102D0000807020600620C4F8FC03206940F0200099
:102D1000206100BF00BF00BF206840F0200020609D
:102D2000206840F480702060206940F400702061C9
:102D3000206940F480702061206840F0200020600D
:102D40003520C4F8FC03206940F02000206100BF5A
:102D500000BF00BF206840F020002060206840F4E1
:102D60008070206040F20470C4F8FC03206940F0D9
:102D70002000206100BF00BF00BF206840F020009D
:102D80002060206840F480702060206940F400706A
:102D90002061206940F480702061206840F02000AC
:102DA00020603620C4F8FC03206940F02000206138
:102DB00000BF00BF00BF206840F0200020602068F6
:102DC00040F48070206041F60470C4F8FC03206970
:102DD00040F02000206100BF00BF00BF206840F02D
:102DE00020002060206840F480702060206940F45A
:102DF00000702061206940F480702061206840F0FC
:102E0000200020603720C4F8FC03206940F0200037
:102E1000206100BF00BF00BF206840F0200020609C
:102E2000206840F4807020600420C4F8FC0320690E
:102E300040F02000206100BF00BF00BF206840F0CC
:102E400020002060206840F480702060206940F4F9
:102E500000702061206940F480702061206840F09B
:102E6000200020603820C4F8FC03206940F02000D6
:102E7000206100BF00BF00BF206840F0200020603C
:102E8000206840F480702060C4F8FC53206940F052
:102E90002000206100BF00BF00BF206840F020007C
:102EA0002060206840F480702060206940F4007049
:102EB0002061206940F480702061206840F020008B
:102EC00020603920C4F8FC03206940F02000206114
:102ED00000BF00BF00BF206840F0200020602068D5
:102EE00040F48070206040F20670C4F8FC03206952
:102EF00040F02000206100BF00BF00BF206840F00C
:102F000020002060206840F480702060206940F438
:102F100000702061206940F480702061206840F0DA
:102F2000200020603C20C4F8FC03206940F0200011
:102F3000206100BF00BF00BF206840F0200020607B
:102F4000206840F48070206040F20170C4F8FC03F7
:102F5000206940F02000206100BF00BF00BF206852
:102F600040F020002060206840F4807020602069DC
:102F700040F400702061206940F480702061206876
:102F800040F0200020603D20C4F8FC03206940F0A0
:102F90002000206100BF00BF00BF206840F020007B
:102FA0002060206840F4807020600F20C4F8FC038B
:102FB000206940F02000206100BF00BF00BF2068F2
:102FC00040F020002060206840F48070206020697C
:102FD00040F400702061206940F480702061206816
:102FE00040F0200020605020C4F8FC03206940F02D
:102FF0002000206100BF00BF00BF206840F020001B
:103000002060206840F480702060C4F8FC53206980
:1030100040F02000206100BF00BF00BF206840F0EA
:1030200020002060206840F480702060206940F417
:1030300000702061206940F480702061206840F0B9
:10304000200020605120C4F8FC03206940F02000DB
:10305000206100BF00BF00BF206840F0200020605A
:10306000206840F480702060EF20C4F8FC032069E1
:1030700040F02000206100BF00BF00BF206840F08A
:1030800020002060206840F480702060206940F4B7
:1030900000702061206940F480702061206840F059
:1030A000200020605220C4F8FC03206940F020007A
:1030B000206100BF00BF00BF206840F020002060FA
:1030C000206840F480702060C4F8FC53206940F010
:1030D0002000206100BF00BF00BF206840F020003A
:1030E0002060206840F480702060206940F4007007
:1030F0002061206940F480702061206840F0200049
:1031000020605320C4F8FC03206940F020002061B7
:1031100000BF00BF00BF206840F020002060206892
:1031200040F48070206040F23F10C4F8FC03206936
:1031300040F02000206100BF00BF00BF206840F0C9
:1031400020002060206840F480702060206940F4F6
:1031500000702061206940F480702061206840F098
:10316000200020606020C4F8FC03206940F02000AB
:10317000206100BF00BF00BF206840F02000206039
:10318000206840F4807020604FF41C50C4F8FC03A9
:10319000206940F02000206100BF00BF00BF206810
:1031A00040F020002060206840F48070206020699A
:1031B00040F400702061206940F480702061206834
:1031C00040F0200020606120C4F8FC03206940F03A
:1031D0002000206100BF00BF00BF206840F0200039
:1031E0002060206840F4807020600120C4F8FC0357
:1031F000206940F02000206100BF00BF00BF2068B0
:1032000040F020002060206840F480702060206939
:1032100040F400702061206940F4807020612068D3
:1032200040F0200020606A20C4F8FC03206940F0D0
:103230002000206100BF00BF00BF206840F02000D8
:103240002060206840F480702060C4F8FC5320693E
:1032500040F02000206100BF00BF00BF206840F0A8
:1032600020002060206840F480702060206940F4D5
:1032700000702061206940F480702061206840F077
:10328000200020608020C4F8FC03206940F020006A
:10329000206100BF00BF00BF206840F02000206018
:1032A000206840F480702060C4F8FC53206940F02E
:1032B0002000206100BF00BF00BF206840F0200058
:1032C0002060206840F480702060206940F4007025
:1032D0002061206940F480702061206840F0200067
:1032E00020608120C4F8FC03206940F020002061A8
:1032F00000BF00BF00BF206840F0200020602068B1
:1033000040F480702060C4F8FC53206940F0200035
:10331000206100BF00BF00BF206840F02000206097
:10332000206840F480702060206940F400702061C3
:10333000206940F480702061206840F02000206007
:103340008220C4F8FC03206940F02000206100BF07
:1033500000BF00BF206840F020002060206840F4DB
:1033600080702060C4F8FC53206940F02000206188
:1033700000BF00BF00BF206840F020002060206830
:1033800040F480702060206940F400702061206962
:1033900040F480702061206840F02000206083208D
:1033A000C4F8FC03206940F02000206100BF00BF8A
:1033B00000BF206840F020002060206840F480704A
:1033C0002060C4F8FC53206940F02000206100BF59
:1033D00000BF00BF206840F020002060206840F45B
:1033E00080702060206940F400702061206940F402
:1033F00080702061206840F0200020608420C4F8A4
:10340000FC03206940F02000206100BF00BF00BF26
:10341000206840F020002060206840F48070206028
:10342000C4F8FC53206940F02000206100BF00BFB9
:1034300000BF206840F020002060206840F48070C9
:103440002060206940F400702061206940F48070A1
:103450002061206840F0200020608520C4F8FC0333
:10346000206940F02000206100BF00BF00BF20683D
:1034700040F020002060206840F480702060C4F894
:10348000FC53206940F02000206100BF00BF00BF56
:10349000206840F020002060206840F480702060A8
:1034A000206940F400702061206940F48070206140
:1034B000206840F0200020609020C4F8FC032069C0
:1034C00040F02000206100BF00BF00BF206840F036
:1034D00020002060206840F480702060C4F8FC73F5
:1034E000206940F02000206100BF00BF00BF2068BD
:1034F00040F020002060206840F480702060206947
:1035000040F400702061206940F4807020612068E0
:1035100040F0200020609220C4F8FC03206940F0B5
:103520002000206100BF00BF00BF206840F02000E5
:103530002060206840F480702060C4F8FC5320694B
:1035400040F02000206100BF00BF00BF206840F0B5
:1035500020002060206840F480702060206940F4E2
:1035600000702061206940F480702061206840F084
:10357000200020609320C4F8FC03206940F0200064
:10358000206100BF00BF00BF206840F02000206025
:10359000206840F480702060C4F8FC13206940F07B
:1035A0002000206100BF00BF00BF206840F0200065
:1035B0002060206840F480702060206940F4007032
:1035C0002061206940F480702061206840F0200074
:1035D00020609520C4F8FC03206940F020002061A1
:1035E00000BF00BF00BF206840F0200020602068BE
:1035F00040F4807020604FF48870C4F8FC032069A8
:1036000040F02000206100BF00BF00BF206840F0F4
:1036100020002060206840F480702060206940F421
:1036200000702061206940F480702061206840F0C3
:10363000200020609720C4F8FC03206940F020009F
:10364000206100BF00BF00BF206840F02000206064
:10365000206840F480702060C4F8FC53206940F07A
:103660002000206100BF00BF00BF206840F02000A4
:103670002060206840F480702060206940F4007071
:103680002061206940F480702061206840F02000B3
:1036900020609820C4F8FC03206940F020002061DD
:1036A00000BF00BF00BF206840F0200020602068FD
:1036B00040F480702060C4F8FC53206940F0200082
:1036C000206100BF00BF00BF206840F020002060E4
:1036D000206840F480702060206940F40070206110
:1036E000206940F480702061206840F02000206054
:1036F000C4F8FC13206940F02000206100BF00BF27
:1037000000BF206840F020002060206840F48070F6
:10371000206041F21800C4F8FC03206940F020004A
:10372000206100BF00BF00BF206840F02000206083
:10373000206840F480702060206940F400702061AF
:10374000206940F480702061206840F020002060F3
:10375000C4F8FC23206940F02000206100BF00BFB6
:1037600000BF206840F020002060206840F4807096
:10377000206040F27310C4F8FC03206940F0200080
:10378000206100BF00BF00BF206840F02000206023
:10379000206840F48070206001B0BDE8F08F000028
:1037A00070470000FCF7D2BF4EF68850CEF2000002
:1037B000016841F4700101604FF0006140F8801C25
:1037C00070470000FEE7000094B0FCF7CDFF06ACA8
:1037D00020463821FCF723FD00254FF400700595A5
:1037E000CDE90355CDE90155FDF752F801200690CA
:1037F0004FF480300790022014210D900326CDE96C
:103800001010CDE912002046CDE90E66FDF74EFA04
:1038100018B1EFF3108072B6FEE70F20CDE9010674
:1038200001A80221CDE903550595FDF7B5F820B1B2
:10383000EFF3108072B600BFFEE7FDF74BFF40F6D6
:103840000040C4F6000004210022FCF773FFFDF7DE
:1038500047FD4FF6FF70FDF76DFE0020FDF7DAFE25
:103860004FF6FF70FDF784FCFCF768FEFCE702E012
:1038700008C8121F08C1002AFAD1704770470020FB
:1038800001E001C1121F002AFBD1704700000000B7
:10389000000000000102030406070809FFFFA561FC
:1038A000276A887A4EA4B3D56B8BF2B436DE5453B4
:1038B000147493325995E8592E3A787CFF00FF0032
:1038C000FF00FF00FF00FF00FF00FF00FF00FF0000
:1038D000FF00FF00FF00FF00FF00FF00FF00FF00F0
:1038E000FF00FF00FF00FF00FF00FF00FF00FF00E0
:1038F000FF00FF00FF00FF00FF00FF00FF00FF00D0
:10390000FF00FF00FF00FF00FF00FF00FF00FF00BF
:103910009E000501E9000901E5000D0140000201DA
:10392000A0000F013B0009019C00110137000E01AE
:1039300099000901010208013500110197000801F1
:103940000103010401050104010307013200130111
:103950009600080101060505010607012F00160162
:103960009500070101060705010306012D000C0162
:103970000102010601040207010606019400070185
:1039800001060905010206012B000B0101060104D5
:103990000605010305019300070101060A0501045C
:1039A000070128000B0101060107080501060601B1
:1039B0009200060101020C050106060127000A011A
:1039C000010601070A05010406019100070101042F
:1039D0000C0501072A0101000A01010301040D057C
:1039E00006019000070101060D05010434010104E0
:1039F0000F0506019000060101030E0501063201C4
:103A000001061005010706018F00070101040E05DC
:103A100001033001010201041105010706018F00B5
:103A2000060101060F0501062F0101061305010716
:103A300006018E00070111050106060102020203BC
:103A40000E0603030202100101061405010406011B
:103A50008E0006010106120501070204020719057E
:103A600001070304090601041605010406018D007F
:103A7000060101025505010606018D00060101043B
:103A80005505010606018C000601010256050106D6
:103A900005018D00060101065605010305018C0094
:103AA0000701570506018B000701010656050104B1
:103AB00006018A0008010107560501040701880074
:103AC00008010104580501020701860008010104EC
:103AD00059050104070185000801010627050508AD
:103AE0002F050106070183000801010625050108CD
:103AF000090001082D0501030701810008010106E5
:103B0000250501080C0001082C05010207018000B1
:103B10000701010625050F0001082B050104070117
:103B20007F0007010103250511002C05010607018F
:103B30007D00070101032505010812002C0501067F
:103B400007017B00070101032505010814002C056E
:103B5000010307017900070101022605150001088C
:103B60002B050107080177000701010201071A056B
:103B700001070209010A01070605170006050307E8
:103B800023050104070176000701010201071A0558
:103B90000109050B0107040519000405010A030BBF
:103BA0000109010722050106070174000801010748
:103BB0001A050107060B0109030501081900010890
:103BC0000205010A060B0107220501060701720022
:103BD000080101041B050109070B010702051B0071
:103BE00001080107070B0109230501020701700005
:103BF000080101041C050109070B010701051D004F
:103C00000107070B01092305010707016F000801E0
:103C100001041D050109070B010701081D00010C26
:103C2000080B01072305010407016D0008010106C7
:103C30001E050109070B01071E00010C080B0107F7
:103C40002405010607016B00080101061F05010993
:103C5000070B1F00010C080B0107250501030701D5
:103C60006A00070101061F050107080B1F00010C70
:103C7000080B01072505010701020701680007017C
:103C8000010620050107080B1F00010C080B0107A6
:103C9000260501040701680006010103210501074B
:103CA000080B07000207020402071200010C080BB0
:103CB0000107270501060701670005010103220529
:103CC0000107080B040001070103080101061000A9
:103CD000010C080B01072805010607016700030115
:103CE000010223050107080B020001060D0101076F
:103CF0000E00010C080B01072905010307016900EB
:103D0000010423050107080B0106100101060D003F
:103D1000010C080B010729050107070169002405AB
:103D20000107050B0103010D130101060C00010C35
:103D3000080B01072A050104070168002405010793
:103D4000040B0103160101070B00010C080B01070E
:103D50002B0501060701670024050107030B0C0171
:103D6000010301040207010608010B00010C080B06
:103D700001072C0501030601670001080105010484
:103D8000010601041F050107020B0A0101020107D8
:103D900007000106060101040A00010C080B2E05AC
:103DA00001020501660002050103030101061E056B
:103DB0000107010E0A0101070A00010305010103C1
:103DC0000A00010C080B010001082C050104050183
:103DD00066000105010305011E0501060901010632
:103DE0000D0006010A00010C080B02002D05010060
:103DF000030167000103060101071C050106080114
:103E0000010201070E00010305010A00010C080B65
:103E100003002C056B00060101021C0501060801C8
:103E20000106100006010A00010C080B030001083E
:103E30002B056A00070101041B05010608010104A6
:103E400010000103050101020A00010C070B010922
:103E50000400250501040103010201060107010513
:103E60006900070101061B050106080101070F0093
:103E70000107070101060B00070B010F05002305D1
:103E800001040401010201056800070101031B058B
:103E90000106080101070E000107010208010C00DC
:103EA000010A060B0700220501060501010668004C
:103EB000060101021B050104080101070D000107AD
:103EC0000A0101070D000109030B0109080001089F
:103ED0002105010606016700070101041A05010713
:103EE000080101070C0001060B0101071000010C7D
:103EF0000B002105010707016600060101061B05ED
:103F00000102070101070C0001060A010102010577
:103F100006000208160021050106070165000501DB
:103F200001021B050106070101060C0001070A0139
:103F30000106040001070103060101020103010655
:103F4000010701080F0001082105010606016600AE
:103F5000040101001A050104070101060D00090111
:103F600001020107030001040E01010301070E0015
:103F700001082105010205016B0007050106020287
:103F800001060F050102060101020D0001030801EF
:103F9000010704000106110101060E0021050104BC
:103FA00005016C0005050103040101060D0501066C
:103FB000070101050C0001070701010405000106C6
:103FC0001301010201050D00210501040103020195
:103FD0006E0003050106050101030C05010407013C
:103FE00001040D0007010108050001071601010881
:103FF0000C000108210501077000020501070601F8
:1040000001060C050102060101030D000104060171
:1040100001070600010307010406010301020A016A
:1040200001070C0017050104010301020103010748
:104030000505720001050106060101040B050106D4
:10404000070101080D000601010307000601010434
:10405000080001070106080101070C00150501070A
:104060000401010205057300060101060B050104A8
:10407000070101060D000107060101050600010701
:10408000050101030B000107080101050C001405DF
:104090000106050101060305740006010C05010374
:1040A000060101020E0001020501010307000107DC
:1040B000050101040C00010708010C0001081305AB
:1040C00001060501010203057300060101060B0547
:1040D0000104070101070D000107060101050700A2
:1040E0000107050101060D000107070101020C008F
:1040F0000108120501070601010401087400060108
:10410000010701080A050102060101060E0001026D
:104110000501010308000105060101070D00010664
:10412000070101030C0013050106050101037400DA
:1041300007010206010406070205010607010E0039
:104140000107060101050900070101050D00010332
:10415000070101030C00120501040601740011019E
:104160000102070101070E000103050101030A0016
:104170000104070101050D00010208010206020702
:1041800007000108020501060203010605030702F4
:1041900006017400180101020E0001050601010765
:1041A0000B000103070101060C0001080D010102CB
:1041B000010505000108010216017500170101073C
:1041C0000E000106050101030D00010207010106B1
:1041D0000C0001050E01050001051701760015010F
:1041E00001030F00060101070E00080101070C0082
:1041F00001070D01010704000105170178001301F3
:1042000001070E00010605010102100008010D0062
:10421000010701020B010107050016017F000101E2
:1042200001000A0101020F0006010107110001024D
:10423000060101030E000107010601030701010346
:1042400006000102050101030E01850007010104BA
:104250000E0001070601130001020601010612000B
:104260000207020601070700010305019400070188
:104270000F000103050101061400070101061D00DE
:10428000010605019400060101060E000108060161
:10429000010814000107070101061C0001040501C3
:1042A0009400060101050E00010605010103160038
:1042B0000107070101031B00010706019300050127
:1042C00001020F000601010717000106080101079E
:1042D0001900010706019300050101030E00010703
:1042E000050101021900010608010103010517007B
:1042F000010506019300050101060E0001030501F9
:1043000001071A0001060901010616000105060150
:104310009200060101070E0006011C0001060A01B9
:1043200001071400010506019200060101070D00B6
:104330000107050101061D0001070A01010301072C
:104340001200010706019200060101050D00010699
:10435000050101071E0001070B0101030107100001
:1043600001070601920006010E0001060501210069
:1043700001030B010103010601070D0001070601FE
:10438000920006010E000107040101062200010649
:104390000D0101040C000107060192000501010254
:1043A0000F000104020101062400010701020C01B3
:1043B0000C00010606019200050101033900010409
:1043C0000B0101080B000106060192000501010620
:1043D0003B000104080101020C00010606019200E5
:1043E000050101063D000107010304010102010866
:1043F0000C000103060192000501010441000108BF
:104400000F0001020601910006010107510006019B
:104410009200060101075100060192000601010504
:104420005000010506019200060151000107060136
:104430009200060151000107060192000601510099
:104440000106060192000501010251000106050165
:1044500093000501010251000103050193000501CC
:1044600001025100060193000501010350000107FC
:1044700006019300050101035000010606019300A7
:10448000050101035000010205019400050101032B
:104490004F00010506019400050101034F000106CC
:1044A00006019400050101034F000102050195007A
:1044B000050101034E0001050601950005010102F9
:1044C0004E0001060601950006014E000601960009
:1044D00006014D0001040601960006014D0006018B
:1044E0009700060101054B00010706019800050130
:1044F00001074B00010206019800050101044A0072
:10450000010706019900050101064A0001020601A2
:104510009900050101064900010706019A000501FD
:104520000102490007019A00060148000106060140
:104530009B00060101054600010507019B000601DD
:1045400001074600010206019D0005010106450024
:10455000010606019E000501010344000107070151
:104560009E000601440009019D000601430001036D
:1045700009019D0006010107410001060A019E0094
:1045800005010106400001060B019E000501010224
:104590003F0001040701010203019F00060101051C
:1045A0003D000107070101040105A2000601010405
:1045B00016000105020701040106050304060104B3
:1045C000020715000106070101060108A400050104
:1045D0000103100001070104010601031401010297
:1045E00001061100010308010104A50006010B00EA
:1045F00001080104010601021C0101060E0001036D
:104600000A01A500060101070900010621010107B1
:104610000C0001030B01A5000601010307000105C1
:104620000102220101030B0001030C01A500070197
:104630000600010425010A0001020C01A700060181
:104640000103040001030F01100007010800010726
:104650000801AD00080102060B0117000601010662
:104660000500010701030801AE0013011A0006014D
:1046700001060207010601020901B00010011C0039
:104680001301B2000E011D001101B5000B01200045
:104690000E01B800090121000C01BB000501260034
:1046A0000701FF00FF00FF00FF00FF00FF00FF0009
:1046B000FF00FF00FF00FF00FF00FF00FF00FF0002
:1046C000FF00FF00FF00FF00FF00FF00FF00FF00F2
:1046D000FF00FF00FF00FF00FF00FF00FF00FF00E2
:1046E000FF00FF00FF00FF00FF00FF00FF00FF00D2
:1046F000FF00FF00FF00DC00FFFFA561276A6B8B56
:104700004EA4D2ACB3D5887A36DEDBE6745393324E
:10471000137C1BB69AA5E859FF00FF00FF00FF00BD
:10472000FF00FF00FF00FF00FF00FF00FF00FF0091
:10473000FF00FF00FF00FF00FF00FF00FF00FF0081
:10474000FF00FF00FF00FF00FF00FF00FF00FF0071
:10475000FF00FF00FF00FF00FF00FF00FF00FF0061
:10476000FF00FF00FF00FF00BD000501E8000A0197
:10477000E4000D013B000A019D000F0138000D010E
:104780009B00110134001101990013013100140143
:10479000980007010102010301040105010308015A
:1047A0002F00160196000701010305060104070109
:1047B0002D000D0101070303070195000701010703
:1047C0000706010307012B000B0101070103010587
:1047D0000406010406019400070101020906010311
:1047E000060129000B01010301040806010306016B
:1047F0009300070101050A06070127000A010103CA
:1048000001050A06010406019200070101040B06D6
:104810000103060114001B01010201040C0601043E
:1048200006019100070101030C0601053401010393
:104830000E0601050601910007010E060102310175
:10484000010201041006060190000701010301089E
:104850000C06010431010107120601020501900056
:10486000060101070E0601053001010313060102CE
:1048700005018F00070101050F0601032C01010747
:10488000010301041406010205018F000601010362
:10489000110601030907190308040105170601029F
:1048A00005018E000701550606018E000601010074
:1048B0005406010506018D00070155060104060195
:1048C0008D00060101035506010406018D00060155
:1048D00001055506010306018C0006010107560675
:1048E000010305018D0006010104560601030501BF
:1048F0008C0007015706010406018A000701010325
:104900005806010206018800070101022606020876
:10491000040901082C0601030701860008010104AF
:1049200024060108010908000109010829060105FA
:104930000801840008010103240601080C00010994
:104940000108280601040801830007010103240669
:1049500001090F0001082806010307018200070171
:1049600001032406010911000108280601030701BB
:104970008000070101072406010912000109290628
:10498000010707017E000701010724060108140042
:1049900001092906010207017C0007010102240622
:1049A0000108160001082806010508017A0008011F
:1049B00001051B0602050706010917002906010467
:1049C00008017800080101041A060105010A020B1A
:1049D000010A010504060109180001090406010580
:1049E000020C0105210601030701770008010104FB
:1049F0001A060105060B0105020601081A00010846
:104A00000206010A040B010A2106010307017500D1
:104A1000080101031B06070B010A020601091B001E
:104A20000106010A060B010A2106010307017400B1
:104A3000070101031B060105080B010501091C0004
:104A40000109080B01052106010707017200070192
:104A500001031C060105080B01051D000109080BD7
:104A60000105220608017000070101071D06010C5F
:104A7000080B01091D00010D080B010522060104A8
:104A800008016E00070101021E06010C080B010956
:104A90001D00010D080B01052306010407016D002F
:104AA0000701010201051E06010C080B01091D008A
:104AB000010D080B01052406010307016B00080125
:104AC00001051F06010C080B01091D00010D080B53
:104AD00001052506010307016900080101042006FC
:104AE000010A070B010A01091D00010D080B010550
:104AF0002606010707016800070101042106010AD3
:104B0000070B010A1E00010D080B01052706010213
:104B100007016600070101032206010A070B010ACB
:104B2000060001090106040501091100010D080B29
:104B3000010527060105080165000601010323069A
:104B4000010A070B010A030001090105010707011A
:104B5000010701050F00010D080B010528060104DE
:104B600008016400050101032406010A070B010A7C
:104B70000100010901030C0101050E00010E080BE3
:104B8000010529060103070165000301010325064C
:104B9000010A070B010A01050F01010301090C00BD
:104BA000010E080B01052A0601030701670026060E
:104BB000010A060B0107120101030C00010E080B8C
:104BC00001052B060107060167002606010A050BF1
:104BD000010F140101050B00010E080B01052C0645
:104BE0000102050167002606010A030B01070A01FD
:104BF0000102010301050106010501070601010388
:104C00000B00010E080B010901082B06010501022A
:104C1000040167002606010A020B010709010102CF
:104C2000010501090400010901030501010201094F
:104C30000A00010E080B010901002C060105010004
:104C400001016900030601052206020B010F08019C
:104C5000010201050109070001090102050101091D
:104C60000A00010E080B0109010001092C066B0066
:104C7000010801040102020101032006010A0901E1
:104C8000010301090A000103050101060A00010EE2
:104C9000080B0109020001082B066B000104050145
:104CA00001041D06010801060102070101020106B7
:104CB0000C000104050101050A00010E080B0109A1
:104CC000020001092506020404066B000102050129
:104CD00001031E0601070701010301090C00010978
:104CE0000102050101060A00010E080B010903007B
:104CF00001092306010303010104010601086A00FA
:104D0000070101041D060107070101050D00010946
:104D10000107060101090A00010D080B0109040041
:104D200001082106010305010206690007010102CD
:104D30001D060107070101050D000106010206011C
:104D400001030B000109070B010A060021060103FC
:104D5000050101036900080101041C0601070701A0
:104D600001050C0001090103080101090C00010EF5
:104D7000060B01090600010920060103060169006E
:104D8000070101031C060103070101060C000105D0
:104D90000102080101050E00010E030B010A0109C1
:104DA000080001081F06010507016700070101034C
:104DB0001C060103070101060B000109010309019B
:104DC0000104110002090B00200601030701650020
:104DD000070101071C060104070101050C0001037E
:104DE000090101051F0001092006010206016500F5
:104DF000060101021D060102060101050C00010564
:104E000009010105210001081F06010406016500D2
:104E1000060101051C060103060101030C00010641
:104E2000090101061000010901050203010702033F
:104E3000010401050106010908002006010305011E
:104E400066000401010009060105120601040601BD
:104E5000010701090B00010901070701010301090D
:104E60000F00010501070B010103010906000109FB
:104E70002006050167000201030006060103020186
:104E80000107010510060102060101090C000105D8
:104E90000601010201050F00010601070F010105CE
:104EA00006000108170601050103010404060200BB
:104EB00003016D0005060103040101070F0601034C
:104EC000060101050C0001090601010701090F0097
:104ED0000105120101030109050016060104030181
:104EE000010302060108730003060105060101051E
:104EF0000D060105060101030D000103060101066F
:104F00000F0001091401010305000109150605013F
:104F10000103010674000306010306010E060103E6
:104F2000060101090C00010906010103100001033B
:104F30001501010905000108130601040501010717
:104F400076000206060101030D06010406010105B3
:104F50000D000103060101090F000109070101030A
:104F60000105040901080105010706010105060004
:104F7000010812060105060177000104060101057A
:104F80000D0601030501010201090C0001090601DA
:104F900001041000010505010102010908000109D1
:104FA00001070501010306000109130601070601B7
:104FB00076000102050101030D0601040601010549
:104FC0000D0001040601010910000103050101059E
:104FD0000A00010605010107070001080D06050585
:104FE000010306017600060101040D060103050117
:104FF00001070D0001090601010410000109010269
:10500000050101090A000106050101030800010864
:1050100002060104010306020E01760005010102E9
:105020000D060105060101050D0001050601010936
:1050300010000109050101070B000103050101032F
:105040000209010801090400010901060104160111
:1050500075000601010702040205090601030501A6
:10506000010701090D0001070501010311000105F8
:10507000050101030900010901030B0101050400F9
:105080000109170175000B01010201070203010468
:10509000020502060102050101050D0001060601D7
:1050A00001091100010505010105050001090106BD
:1050B0000105010301070D010106030001091601A5
:1050C0007600130101020501010201090D0001032F
:1050D0000501010312000104050101060300010995
:1050E00001031201010503000109160177001801EF
:1050F00001040D000109060101061200010305016A
:105100000108030001041301010503000109010264
:1051100013017900180101090D00010305010107C0
:105120000109120001030501010603000107120134
:1051300001030500010306018700160101070D00A8
:105140000109010205010105130001050501010422
:105150000300010309010103010401030307020322
:1051600001050600010306018A00130101050D0077
:1051700001050601010913000105050101070300EE
:1051800001090701010301080F0001030601930053
:105190000A0101090D0001070501010314000106C0
:1051A00006010104030001090303010501080109C7
:1051B0001100010306019500070101030D0001091B
:1051C00006010106140001090102060101051A0089
:1051D0000103060195000601010301090D00010309
:1051E000050101020109150001050701010519006A
:1051F0000104060195000501010201090D000109E4
:10520000010205010104170001030701010518004F
:10521000010506019500050101030E0001060601C6
:105220000108170001090103070101031700010527
:1052300006019500050101030E00010305010107A8
:105240001900010901070701010701061500010501
:1052500006019400060101050E0001070501010485
:105260001A000109010708010103010813000105E3
:1052700006019400060101080D000109060101085C
:105280001B000109010709010103010501091000C3
:10529000010506019400060101090D000106050142
:1052A000010701091C00010901030B0101030105AC
:1052B00001090D00010506019400050101070E001A
:1052C0000108050101051F0001040D0101050C0085
:1052D000010506019300060101030E000109010703
:1052E0000301010201092000010601070C01010967
:1052F0000B00010506019300060101050F000109DD
:1053000001030107010301092300010501020A014C
:1053100001050B0001050601930006010106380096
:10532000010901040102080101060B000105050144
:105330009400060101093A00010901050107050170
:1053400001030C00010505019400050101073E0061
:105350000109030501060D00010405019300060182
:1053600001035000010305019300060101055000EF
:105370000103050193000601010650000107050124
:105380009300060101095000010205019300050187
:1053900001025000010906019200060101035000BC
:1053A00001090601920006010105500001050601F0
:1053B0009200060101065000010506019200060157
:1053C0000109500001030501930005010107510087
:1053D00001020501920006010103500001090601C6
:1053E0009200060101055000010506019200060128
:1053F0000106500001030601920006010109500058
:10540000010705019300050101075000010906018C
:1054100093000501010350000105060193000501F9
:1054200001035000010305019400050101044F0030
:10543000010906019400050101054F00010506015F
:105440009400050101054F000107060194000501C4
:1054500001054E00010906019500050101054E00F8
:10546000010406019500050101054D000109010235
:1054700005019600050101044D0001050601960095
:10548000050101034C000109010206019600050116
:1054900001034C00010506019700050101074C00BE
:1054A000010206019700050101024B0001050601FA
:1054B0009800060101094900010907019800060149
:1054C0000109490001030601990006010105480090
:1054D000010607019A0005010104470001090701BF
:1054E0009B00050101034700010306019C00050123
:1054F000010201094500010507019C0006010106A2
:105500004400010607019D00060101034300010953
:10551000010207019E000501010201091C000109A9
:105520000106030504030407010301050209150030
:10553000010307019F00060101051600020901058C
:10554000010401030102100101020103010512001F
:1055500001030701A0000601010313000109010571
:10556000010301021801010701090F0001030701EE
:10557000A200060101091000010601031E01010934
:105580000C00010901030701A300060101050D003C
:10559000010901050107210101090A0001090107AB
:1055A0000801A300060101070B0001090104250100
:1055B00001090800010901070801A5000601010908
:1055C00008000109010414010C000701010706008D
:1055D000010901040901A6000601010407000105F3
:1055E00001020F0113000701010303000109010477
:1055F0000A01A800060101090400010901030D01C7
:10560000180007010107010301070B01A9000601AA
:1056100001030300010601020B011B001401AA0093
:105620000701020501070B011E001201AC00120167
:1056300021001001AD00100124000D01B0000D018A
:1056400027000901B4000B01E6000901E90004018B
:10565000FF00FF00FF00FF00FF00FF00FF00FF0052
:10566000FF00FF00FF00FF00FF00FF00FF00FF0042
:10567000FF00FF00FF00FF00FF00FF00FF00FF0032
:10568000FF00FF00FF00FF00FF00FF00FF00FF0022
:10569000FF00FF00FF00FF00FF00FF00FF00FF0012
:1056A000FF00FF00FF000A00FFFFA561276A4B8B88
:1056B0004EA4887AB3D5F2B436D674539332147CA0
:1056C000787C599DE8591BB6FF00FF00FF00FF00E2
:1056D000FF00FF00FF00FF00FF00FF00FF00FF00D2
:1056E000FF00FF00FF00FF00FF00FF00FF00FF00C2
:1056F000FF00FF00FF00FF00FF00FF00FF00FF00B2
:10570000FF00FF00FF00FF00FF00FF00FF00FF00A1
:10571000FF0041000501E8000A01A10005013E006B
:105720000D019E0009013A0010019B000D01360099
:10573000130199000F013300150198001101310088
:105740000B0101020103020401030701960012018B
:105750002F000B0101050104050601030601960057
:105760000701010201040107010308012D000A01DC
:10577000010501040806060195000701010504065C
:105780000107010507012B000A0101030A060105B3
:105790000501940007010105070601020701290020
:1057A000090101030C060103050194000601010231
:1057B00008060107070127000A0101040D0601037D
:1057C0000601920007010104090601040701100007
:1057D0001E01010501070E060103060191000701E4
:1057E00001030B060103070102002A010103100651
:1057F000010306019100060101050D0601023101B8
:1058000001041106010406019000070101040D06C0
:1058100001022F0101050107120601030601900094
:10582000060101030D0601042F0101051406010301
:1058300006018F00070101070D0601032D0101027A
:1058400001031506010306018F00060101030E0680
:1058500001041001020203051003010506030107FC
:105860001706010306018E00070110060103060159
:1058700001020105030302040207340601030601C5
:105880008E0006010103110601070203020401074D
:105890003D06010305018E000701010754060105BD
:1058A00005018E00060101035506010205018E0067
:1058B000060101075506010206018C0006010105DB
:1058C0005606010207018B0006010104560601037A
:1058D0000801890006010102580601030701890039
:1058E00006010103590601050701870007010104AC
:1058F0005906010701020701850007010105270676
:105900000108060001082C060104080183000801B3
:105910000107250601080B002B060104080182007F
:105920000701010425060E002B0601030801800073
:1059300007010103250610002B06010307017F0064
:10594000070101052506120001082A0601050701C5
:105950007D00070101020107240614002B06010245
:1059600007017B0008010104240616002A0601072E
:1059700008017A00070101032406010817002A061E
:1059800001040801780007010103250619002A0611
:10599000010408017600070101051D06040704063D
:1059A00001081A0004060107030901072106010383
:1059B000070175000701010201071C060109030A1E
:1059C0000109010703061B0001080206010B050A75
:1059D000010B2106010307017300080101041C06E5
:1059E000010B060A010701061D0001080107070A4D
:1059F00001072106010507017200070101031C06CA
:105A00000107070A010901081E00010B070A010B23
:105A10002206010207017000070101031D060107AC
:105A2000070A01091F000109070A010922060107E7
:105A300008016E00070101051E060107070A01099A
:105A40001F000109070A01092306010408016C006F
:105A50000701010201071E060107070A01091F00CD
:105A60000109070A01092406010307016B00080167
:105A700001041F060107070A01091F00010B070A9D
:105A800001092506010307016A0007010103200639
:105A90000107070A01091F00010B070A0109260671
:105AA0000103070168000701010321060107070A36
:105AB00001091F00010B070A01092706010207015E
:105AC0006600070101052206010B070A01091F00F4
:105AD000010C070A010927060107080164000801F3
